{
	"contracts/ProofOfHumanity.sol": {
		"ProofOfHumanity": {
			"abi": [
				{
					"anonymous": false,
					"inputs": [
						{
							"indexed": true,
							"internalType": "bytes32",
							"name": "childId",
							"type": "bytes32"
						}
					],
					"name": "AccessRevoked",
					"type": "event"
				},
				{
					"anonymous": false,
					"inputs": [
						{
							"indexed": true,
							"internalType": "bytes32",
							"name": "childId",
							"type": "bytes32"
						},
						{
							"indexed": true,
							"internalType": "address",
							"name": "guardian",
							"type": "address"
						}
					],
					"name": "ChildRegistered",
					"type": "event"
				},
				{
					"anonymous": false,
					"inputs": [
						{
							"indexed": true,
							"internalType": "address",
							"name": "guardian",
							"type": "address"
						}
					],
					"name": "GuardianRegistered",
					"type": "event"
				},
				{
					"anonymous": false,
					"inputs": [
						{
							"indexed": true,
							"internalType": "address",
							"name": "platform",
							"type": "address"
						},
						{
							"indexed": false,
							"internalType": "string",
							"name": "name",
							"type": "string"
						}
					],
					"name": "PlatformRegistered",
					"type": "event"
				},
				{
					"inputs": [
						{
							"internalType": "address",
							"name": "",
							"type": "address"
						}
					],
					"name": "guardians",
					"outputs": [
						{
							"internalType": "bool",
							"name": "",
							"type": "bool"
						}
					],
					"stateMutability": "view",
					"type": "function"
				},
				{
					"inputs": [
						{
							"internalType": "address",
							"name": "",
							"type": "address"
						}
					],
					"name": "platforms",
					"outputs": [
						{
							"internalType": "string",
							"name": "name",
							"type": "string"
						},
						{
							"internalType": "bool",
							"name": "verified",
							"type": "bool"
						}
					],
					"stateMutability": "view",
					"type": "function"
				},
				{
					"inputs": [
						{
							"internalType": "bytes32",
							"name": "_idHash",
							"type": "bytes32"
						}
					],
					"name": "registerChild",
					"outputs": [],
					"stateMutability": "nonpayable",
					"type": "function"
				},
				{
					"inputs": [],
					"name": "registerGuardian",
					"outputs": [],
					"stateMutability": "nonpayable",
					"type": "function"
				},
				{
					"inputs": [
						{
							"internalType": "address",
							"name": "_platformAddress",
							"type": "address"
						},
						{
							"internalType": "string",
							"name": "_name",
							"type": "string"
						}
					],
					"name": "registerPlatform",
					"outputs": [],
					"stateMutability": "nonpayable",
					"type": "function"
				},
				{
					"inputs": [
						{
							"internalType": "bytes32",
							"name": "_idHash",
							"type": "bytes32"
						}
					],
					"name": "revokeChildAccess",
					"outputs": [],
					"stateMutability": "nonpayable",
					"type": "function"
				},
				{
					"inputs": [
						{
							"internalType": "bytes32",
							"name": "_idHash",
							"type": "bytes32"
						}
					],
					"name": "verifyChildAccess",
					"outputs": [
						{
							"internalType": "bool",
							"name": "",
							"type": "bool"
						}
					],
					"stateMutability": "view",
					"type": "function"
				}
			],
			"devdoc": {
				"kind": "dev",
				"methods": {},
				"version": 1
			},
			"evm": {
				"assembly": "    /* \"contracts/ProofOfHumanity.sol\":57:2724  contract ProofOfHumanity {... */\n  mstore(0x40, 0x80)\n  callvalue\n  dup1\n  iszero\n  tag_1\n  jumpi\n  0x00\n  dup1\n  revert\ntag_1:\n  pop\n  dataSize(sub_0)\n  dup1\n  dataOffset(sub_0)\n  0x00\n  codecopy\n  0x00\n  return\nstop\n\nsub_0: assembly {\n        /* \"contracts/ProofOfHumanity.sol\":57:2724  contract ProofOfHumanity {... */\n      mstore(0x40, 0x80)\n      callvalue\n      dup1\n      iszero\n      tag_1\n      jumpi\n      0x00\n      dup1\n      revert\n    tag_1:\n      pop\n      jumpi(tag_2, lt(calldatasize, 0x04))\n      shr(0xe0, calldataload(0x00))\n      dup1\n      0x8577ee23\n      gt\n      tag_10\n      jumpi\n      dup1\n      0x8577ee23\n      eq\n      tag_6\n      jumpi\n      dup1\n      0xa47c7816\n      eq\n      tag_7\n      jumpi\n      dup1\n      0xd1313384\n      eq\n      tag_8\n      jumpi\n      dup1\n      0xfe77205f\n      eq\n      tag_9\n      jumpi\n      jump(tag_2)\n    tag_10:\n      dup1\n      0x045d636d\n      eq\n      tag_3\n      jumpi\n      dup1\n      0x0633b14a\n      eq\n      tag_4\n      jumpi\n      dup1\n      0x4dbe8fdc\n      eq\n      tag_5\n      jumpi\n    tag_2:\n      0x00\n      dup1\n      revert\n        /* \"contracts/ProofOfHumanity.sol\":1490:1838  function registerChild(bytes32 _idHash) external onlyGuardian {... */\n    tag_3:\n      tag_11\n      0x04\n      dup1\n      calldatasize\n      sub\n      dup2\n      add\n      swap1\n      tag_12\n      swap2\n      swap1\n      tag_13\n      jump\t// in\n    tag_12:\n      tag_14\n      jump\t// in\n    tag_11:\n      stop\n        /* \"contracts/ProofOfHumanity.sol\":525:566  mapping(address => bool) public guardians */\n    tag_4:\n      tag_15\n      0x04\n      dup1\n      calldatasize\n      sub\n      dup2\n      add\n      swap1\n      tag_16\n      swap2\n      swap1\n      tag_17\n      jump\t// in\n    tag_16:\n      tag_18\n      jump\t// in\n    tag_15:\n      mload(0x40)\n      tag_19\n      swap2\n      swap1\n      tag_20\n      jump\t// in\n    tag_19:\n      mload(0x40)\n      dup1\n      swap2\n      sub\n      swap1\n      return\n        /* \"contracts/ProofOfHumanity.sol\":1243:1442  function registerGuardian() external {... */\n    tag_5:\n      tag_21\n      tag_22\n      jump\t// in\n    tag_21:\n      stop\n        /* \"contracts/ProofOfHumanity.sol\":1872:2223  function registerPlatform(address _platformAddress, string calldata _name) external {... */\n    tag_6:\n      tag_23\n      0x04\n      dup1\n      calldatasize\n      sub\n      dup2\n      add\n      swap1\n      tag_24\n      swap2\n      swap1\n      tag_25\n      jump\t// in\n    tag_24:\n      tag_26\n      jump\t// in\n    tag_23:\n      stop\n        /* \"contracts/ProofOfHumanity.sol\":2276:2446  function verifyChildAccess(bytes32 _idHash) external view onlyPlatform returns (bool) {... */\n    tag_7:\n      tag_27\n      0x04\n      dup1\n      calldatasize\n      sub\n      dup2\n      add\n      swap1\n      tag_28\n      swap2\n      swap1\n      tag_13\n      jump\t// in\n    tag_28:\n      tag_29\n      jump\t// in\n    tag_27:\n      mload(0x40)\n      tag_30\n      swap2\n      swap1\n      tag_20\n      jump\t// in\n    tag_30:\n      mload(0x40)\n      dup1\n      swap2\n      sub\n      swap1\n      return\n        /* \"contracts/ProofOfHumanity.sol\":594:639  mapping(address => Platform) public platforms */\n    tag_8:\n      tag_31\n      0x04\n      dup1\n      calldatasize\n      sub\n      dup2\n      add\n      swap1\n      tag_32\n      swap2\n      swap1\n      tag_17\n      jump\t// in\n    tag_32:\n      tag_33\n      jump\t// in\n    tag_31:\n      mload(0x40)\n      tag_34\n      swap3\n      swap2\n      swap1\n      tag_35\n      jump\t// in\n    tag_34:\n      mload(0x40)\n      dup1\n      swap2\n      sub\n      swap1\n      return\n        /* \"contracts/ProofOfHumanity.sol\":2484:2722  function revokeChildAccess(bytes32 _idHash) external {... */\n    tag_9:\n      tag_36\n      0x04\n      dup1\n      calldatasize\n      sub\n      dup2\n      add\n      swap1\n      tag_37\n      swap2\n      swap1\n      tag_13\n      jump\t// in\n    tag_37:\n      tag_38\n      jump\t// in\n    tag_36:\n      stop\n        /* \"contracts/ProofOfHumanity.sol\":1490:1838  function registerChild(bytes32 _idHash) external onlyGuardian {... */\n    tag_14:\n        /* \"contracts/ProofOfHumanity.sol\":966:975  guardians */\n      0x01\n        /* \"contracts/ProofOfHumanity.sol\":966:987  guardians[msg.sender] */\n      0x00\n        /* \"contracts/ProofOfHumanity.sol\":976:986  msg.sender */\n      caller\n        /* \"contracts/ProofOfHumanity.sol\":966:987  guardians[msg.sender] */\n      0xffffffffffffffffffffffffffffffffffffffff\n      and\n      0xffffffffffffffffffffffffffffffffffffffff\n      and\n      dup2\n      mstore\n      0x20\n      add\n      swap1\n      dup2\n      mstore\n      0x20\n      add\n      0x00\n      keccak256\n      0x00\n      swap1\n      sload\n      swap1\n      0x0100\n      exp\n      swap1\n      div\n      0xff\n      and\n        /* \"contracts/ProofOfHumanity.sol\":958:1042  require(guardians[msg.sender], \"Only a registered guardian can perform this action\") */\n      tag_40\n      jumpi\n      mload(0x40)\n      0x08c379a000000000000000000000000000000000000000000000000000000000\n      dup2\n      mstore\n      0x04\n      add\n      tag_41\n      swap1\n      tag_42\n      jump\t// in\n    tag_41:\n      mload(0x40)\n      dup1\n      swap2\n      sub\n      swap1\n      revert\n    tag_40:\n        /* \"contracts/ProofOfHumanity.sol\":1608:1609  0 */\n      0x00\n        /* \"contracts/ProofOfHumanity.sol\":1570:1610  children[_idHash].guardian == address(0) */\n      0xffffffffffffffffffffffffffffffffffffffff\n      and\n        /* \"contracts/ProofOfHumanity.sol\":1570:1578  children */\n      0x00\n        /* \"contracts/ProofOfHumanity.sol\":1570:1587  children[_idHash] */\n      dup1\n        /* \"contracts/ProofOfHumanity.sol\":1579:1586  _idHash */\n      dup4\n        /* \"contracts/ProofOfHumanity.sol\":1570:1587  children[_idHash] */\n      dup2\n      mstore\n      0x20\n      add\n      swap1\n      dup2\n      mstore\n      0x20\n      add\n      0x00\n      keccak256\n        /* \"contracts/ProofOfHumanity.sol\":1570:1596  children[_idHash].guardian */\n      0x01\n      add\n      0x00\n      swap1\n      sload\n      swap1\n      0x0100\n      exp\n      swap1\n      div\n      0xffffffffffffffffffffffffffffffffffffffff\n      and\n        /* \"contracts/ProofOfHumanity.sol\":1570:1610  children[_idHash].guardian == address(0) */\n      0xffffffffffffffffffffffffffffffffffffffff\n      and\n      eq\n        /* \"contracts/ProofOfHumanity.sol\":1562:1642  require(children[_idHash].guardian == address(0), \"Child ID already registered\") */\n      tag_44\n      jumpi\n      mload(0x40)\n      0x08c379a000000000000000000000000000000000000000000000000000000000\n      dup2\n      mstore\n      0x04\n      add\n      tag_45\n      swap1\n      tag_46\n      jump\t// in\n    tag_45:\n      mload(0x40)\n      dup1\n      swap2\n      sub\n      swap1\n      revert\n    tag_44:\n        /* \"contracts/ProofOfHumanity.sol\":1673:1779  Child({... */\n      mload(0x40)\n      dup1\n      0x60\n      add\n      0x40\n      mstore\n      dup1\n        /* \"contracts/ProofOfHumanity.sol\":1701:1708  _idHash */\n      dup3\n        /* \"contracts/ProofOfHumanity.sol\":1673:1779  Child({... */\n      dup2\n      mstore\n      0x20\n      add\n        /* \"contracts/ProofOfHumanity.sol\":1732:1742  msg.sender */\n      caller\n        /* \"contracts/ProofOfHumanity.sol\":1673:1779  Child({... */\n      0xffffffffffffffffffffffffffffffffffffffff\n      and\n      dup2\n      mstore\n      0x20\n      add\n        /* \"contracts/ProofOfHumanity.sol\":1764:1768  true */\n      0x01\n        /* \"contracts/ProofOfHumanity.sol\":1673:1779  Child({... */\n      iszero\n      iszero\n      dup2\n      mstore\n      pop\n        /* \"contracts/ProofOfHumanity.sol\":1653:1661  children */\n      0x00\n        /* \"contracts/ProofOfHumanity.sol\":1653:1670  children[_idHash] */\n      dup1\n        /* \"contracts/ProofOfHumanity.sol\":1662:1669  _idHash */\n      dup4\n        /* \"contracts/ProofOfHumanity.sol\":1653:1670  children[_idHash] */\n      dup2\n      mstore\n      0x20\n      add\n      swap1\n      dup2\n      mstore\n      0x20\n      add\n      0x00\n      keccak256\n        /* \"contracts/ProofOfHumanity.sol\":1653:1779  children[_idHash] = Child({... */\n      0x00\n      dup3\n      add\n      mload\n      dup2\n      0x00\n      add\n      sstore\n      0x20\n      dup3\n      add\n      mload\n      dup2\n      0x01\n      add\n      exp(0x0100, 0x00)\n      dup2\n      sload\n      dup2\n      0xffffffffffffffffffffffffffffffffffffffff\n      mul\n      not\n      and\n      swap1\n      dup4\n      0xffffffffffffffffffffffffffffffffffffffff\n      and\n      mul\n      or\n      swap1\n      sstore\n      pop\n      0x40\n      dup3\n      add\n      mload\n      dup2\n      0x01\n      add\n      exp(0x0100, 0x14)\n      dup2\n      sload\n      dup2\n      0xff\n      mul\n      not\n      and\n      swap1\n      dup4\n      iszero\n      iszero\n      mul\n      or\n      swap1\n      sstore\n      pop\n      swap1\n      pop\n      pop\n        /* \"contracts/ProofOfHumanity.sol\":1820:1830  msg.sender */\n      caller\n        /* \"contracts/ProofOfHumanity.sol\":1795:1831  ChildRegistered(_idHash, msg.sender) */\n      0xffffffffffffffffffffffffffffffffffffffff\n      and\n        /* \"contracts/ProofOfHumanity.sol\":1811:1818  _idHash */\n      dup2\n        /* \"contracts/ProofOfHumanity.sol\":1795:1831  ChildRegistered(_idHash, msg.sender) */\n      0xf038f8a96dc41c1c59d86d2e81663ff567601c4a9a921a3e581ede01a19ef3ef\n      mload(0x40)\n      mload(0x40)\n      dup1\n      swap2\n      sub\n      swap1\n      log3\n        /* \"contracts/ProofOfHumanity.sol\":1490:1838  function registerChild(bytes32 _idHash) external onlyGuardian {... */\n      pop\n      jump\t// out\n        /* \"contracts/ProofOfHumanity.sol\":525:566  mapping(address => bool) public guardians */\n    tag_18:\n      mstore(0x20, 0x01)\n      dup1\n      0x00\n      mstore\n      keccak256(0x00, 0x40)\n      0x00\n      swap2\n      pop\n      sload\n      swap1\n      0x0100\n      exp\n      swap1\n      div\n      0xff\n      and\n      dup2\n      jump\t// out\n        /* \"contracts/ProofOfHumanity.sol\":1243:1442  function registerGuardian() external {... */\n    tag_22:\n        /* \"contracts/ProofOfHumanity.sol\":1299:1308  guardians */\n      0x01\n        /* \"contracts/ProofOfHumanity.sol\":1299:1320  guardians[msg.sender] */\n      0x00\n        /* \"contracts/ProofOfHumanity.sol\":1309:1319  msg.sender */\n      caller\n        /* \"contracts/ProofOfHumanity.sol\":1299:1320  guardians[msg.sender] */\n      0xffffffffffffffffffffffffffffffffffffffff\n      and\n      0xffffffffffffffffffffffffffffffffffffffff\n      and\n      dup2\n      mstore\n      0x20\n      add\n      swap1\n      dup2\n      mstore\n      0x20\n      add\n      0x00\n      keccak256\n      0x00\n      swap1\n      sload\n      swap1\n      0x0100\n      exp\n      swap1\n      div\n      0xff\n      and\n        /* \"contracts/ProofOfHumanity.sol\":1298:1320  !guardians[msg.sender] */\n      iszero\n        /* \"contracts/ProofOfHumanity.sol\":1290:1352  require(!guardians[msg.sender], \"Guardian already registered\") */\n      tag_48\n      jumpi\n      mload(0x40)\n      0x08c379a000000000000000000000000000000000000000000000000000000000\n      dup2\n      mstore\n      0x04\n      add\n      tag_49\n      swap1\n      tag_50\n      jump\t// in\n    tag_49:\n      mload(0x40)\n      dup1\n      swap2\n      sub\n      swap1\n      revert\n    tag_48:\n        /* \"contracts/ProofOfHumanity.sol\":1386:1390  true */\n      0x01\n        /* \"contracts/ProofOfHumanity.sol\":1362:1371  guardians */\n      dup1\n        /* \"contracts/ProofOfHumanity.sol\":1362:1383  guardians[msg.sender] */\n      0x00\n        /* \"contracts/ProofOfHumanity.sol\":1372:1382  msg.sender */\n      caller\n        /* \"contracts/ProofOfHumanity.sol\":1362:1383  guardians[msg.sender] */\n      0xffffffffffffffffffffffffffffffffffffffff\n      and\n      0xffffffffffffffffffffffffffffffffffffffff\n      and\n      dup2\n      mstore\n      0x20\n      add\n      swap1\n      dup2\n      mstore\n      0x20\n      add\n      0x00\n      keccak256\n      0x00\n        /* \"contracts/ProofOfHumanity.sol\":1362:1390  guardians[msg.sender] = true */\n      0x0100\n      exp\n      dup2\n      sload\n      dup2\n      0xff\n      mul\n      not\n      and\n      swap1\n      dup4\n      iszero\n      iszero\n      mul\n      or\n      swap1\n      sstore\n      pop\n        /* \"contracts/ProofOfHumanity.sol\":1424:1434  msg.sender */\n      caller\n        /* \"contracts/ProofOfHumanity.sol\":1405:1435  GuardianRegistered(msg.sender) */\n      0xffffffffffffffffffffffffffffffffffffffff\n      and\n      0xc2d72ac93e7fb29c534663a530cd3db012d5c336965e423e0ed5ee7a64ed8745\n      mload(0x40)\n      mload(0x40)\n      dup1\n      swap2\n      sub\n      swap1\n      log2\n        /* \"contracts/ProofOfHumanity.sol\":1243:1442  function registerGuardian() external {... */\n      jump\t// out\n        /* \"contracts/ProofOfHumanity.sol\":1872:2223  function registerPlatform(address _platformAddress, string calldata _name) external {... */\n    tag_26:\n        /* \"contracts/ProofOfHumanity.sol\":1975:1984  platforms */\n      0x02\n        /* \"contracts/ProofOfHumanity.sol\":1975:2002  platforms[_platformAddress] */\n      0x00\n        /* \"contracts/ProofOfHumanity.sol\":1985:2001  _platformAddress */\n      dup5\n        /* \"contracts/ProofOfHumanity.sol\":1975:2002  platforms[_platformAddress] */\n      0xffffffffffffffffffffffffffffffffffffffff\n      and\n      0xffffffffffffffffffffffffffffffffffffffff\n      and\n      dup2\n      mstore\n      0x20\n      add\n      swap1\n      dup2\n      mstore\n      0x20\n      add\n      0x00\n      keccak256\n        /* \"contracts/ProofOfHumanity.sol\":1975:2011  platforms[_platformAddress].verified */\n      0x01\n      add\n      0x00\n      swap1\n      sload\n      swap1\n      0x0100\n      exp\n      swap1\n      div\n      0xff\n      and\n        /* \"contracts/ProofOfHumanity.sol\":1974:2011  !platforms[_platformAddress].verified */\n      iszero\n        /* \"contracts/ProofOfHumanity.sol\":1966:2043  require(!platforms[_platformAddress].verified, \"Platform already registered\") */\n      tag_52\n      jumpi\n      mload(0x40)\n      0x08c379a000000000000000000000000000000000000000000000000000000000\n      dup2\n      mstore\n      0x04\n      add\n      tag_53\n      swap1\n      tag_54\n      jump\t// in\n    tag_53:\n      mload(0x40)\n      dup1\n      swap2\n      sub\n      swap1\n      revert\n    tag_52:\n        /* \"contracts/ProofOfHumanity.sol\":2084:2157  Platform({... */\n      mload(0x40)\n      dup1\n      0x40\n      add\n      0x40\n      mstore\n      dup1\n        /* \"contracts/ProofOfHumanity.sol\":2113:2118  _name */\n      dup4\n      dup4\n        /* \"contracts/ProofOfHumanity.sol\":2084:2157  Platform({... */\n      dup1\n      dup1\n      0x1f\n      add\n      0x20\n      dup1\n      swap2\n      div\n      mul\n      0x20\n      add\n      mload(0x40)\n      swap1\n      dup2\n      add\n      0x40\n      mstore\n      dup1\n      swap4\n      swap3\n      swap2\n      swap1\n      dup2\n      dup2\n      mstore\n      0x20\n      add\n      dup4\n      dup4\n      dup1\n      dup3\n      dup5\n      calldatacopy\n      0x00\n      dup2\n      dup5\n      add\n      mstore\n      not(0x1f)\n      0x1f\n      dup3\n      add\n      and\n      swap1\n      pop\n      dup1\n      dup4\n      add\n      swap3\n      pop\n      pop\n      pop\n      pop\n      pop\n      pop\n      pop\n      dup2\n      mstore\n      0x20\n      add\n        /* \"contracts/ProofOfHumanity.sol\":2142:2146  true */\n      0x01\n        /* \"contracts/ProofOfHumanity.sol\":2084:2157  Platform({... */\n      iszero\n      iszero\n      dup2\n      mstore\n      pop\n        /* \"contracts/ProofOfHumanity.sol\":2054:2063  platforms */\n      0x02\n        /* \"contracts/ProofOfHumanity.sol\":2054:2081  platforms[_platformAddress] */\n      0x00\n        /* \"contracts/ProofOfHumanity.sol\":2064:2080  _platformAddress */\n      dup6\n        /* \"contracts/ProofOfHumanity.sol\":2054:2081  platforms[_platformAddress] */\n      0xffffffffffffffffffffffffffffffffffffffff\n      and\n      0xffffffffffffffffffffffffffffffffffffffff\n      and\n      dup2\n      mstore\n      0x20\n      add\n      swap1\n      dup2\n      mstore\n      0x20\n      add\n      0x00\n      keccak256\n        /* \"contracts/ProofOfHumanity.sol\":2054:2157  platforms[_platformAddress] = Platform({... */\n      0x00\n      dup3\n      add\n      mload\n      dup2\n      0x00\n      add\n      swap1\n      dup2\n      tag_55\n      swap2\n      swap1\n      tag_56\n      jump\t// in\n    tag_55:\n      pop\n      0x20\n      dup3\n      add\n      mload\n      dup2\n      0x01\n      add\n      exp(0x0100, 0x00)\n      dup2\n      sload\n      dup2\n      0xff\n      mul\n      not\n      and\n      swap1\n      dup4\n      iszero\n      iszero\n      mul\n      or\n      swap1\n      sstore\n      pop\n      swap1\n      pop\n      pop\n        /* \"contracts/ProofOfHumanity.sol\":2192:2208  _platformAddress */\n      dup3\n        /* \"contracts/ProofOfHumanity.sol\":2173:2216  PlatformRegistered(_platformAddress, _name) */\n      0xffffffffffffffffffffffffffffffffffffffff\n      and\n      0x95889e852bd8c32e4bd5a807723a13c8dbf0598b5e1dcdd1f609c0e79d169dfe\n        /* \"contracts/ProofOfHumanity.sol\":2210:2215  _name */\n      dup4\n      dup4\n        /* \"contracts/ProofOfHumanity.sol\":2173:2216  PlatformRegistered(_platformAddress, _name) */\n      mload(0x40)\n      tag_57\n      swap3\n      swap2\n      swap1\n      tag_58\n      jump\t// in\n    tag_57:\n      mload(0x40)\n      dup1\n      swap2\n      sub\n      swap1\n      log2\n        /* \"contracts/ProofOfHumanity.sol\":1872:2223  function registerPlatform(address _platformAddress, string calldata _name) external {... */\n      pop\n      pop\n      pop\n      jump\t// out\n        /* \"contracts/ProofOfHumanity.sol\":2276:2446  function verifyChildAccess(bytes32 _idHash) external view onlyPlatform returns (bool) {... */\n    tag_29:\n        /* \"contracts/ProofOfHumanity.sol\":2356:2360  bool */\n      0x00\n        /* \"contracts/ProofOfHumanity.sol\":1108:1117  platforms */\n      0x02\n        /* \"contracts/ProofOfHumanity.sol\":1108:1129  platforms[msg.sender] */\n      0x00\n        /* \"contracts/ProofOfHumanity.sol\":1118:1128  msg.sender */\n      caller\n        /* \"contracts/ProofOfHumanity.sol\":1108:1129  platforms[msg.sender] */\n      0xffffffffffffffffffffffffffffffffffffffff\n      and\n      0xffffffffffffffffffffffffffffffffffffffff\n      and\n      dup2\n      mstore\n      0x20\n      add\n      swap1\n      dup2\n      mstore\n      0x20\n      add\n      0x00\n      keccak256\n        /* \"contracts/ProofOfHumanity.sol\":1108:1138  platforms[msg.sender].verified */\n      0x01\n      add\n      0x00\n      swap1\n      sload\n      swap1\n      0x0100\n      exp\n      swap1\n      div\n      0xff\n      and\n        /* \"contracts/ProofOfHumanity.sol\":1100:1191  require(platforms[msg.sender].verified, \"Only a verified platform can perform this action\") */\n      tag_60\n      jumpi\n      mload(0x40)\n      0x08c379a000000000000000000000000000000000000000000000000000000000\n      dup2\n      mstore\n      0x04\n      add\n      tag_61\n      swap1\n      tag_62\n      jump\t// in\n    tag_61:\n      mload(0x40)\n      dup1\n      swap2\n      sub\n      swap1\n      revert\n    tag_60:\n        /* \"contracts/ProofOfHumanity.sol\":2372:2390  Child memory child */\n      0x00\n        /* \"contracts/ProofOfHumanity.sol\":2393:2401  children */\n      dup1\n        /* \"contracts/ProofOfHumanity.sol\":2393:2410  children[_idHash] */\n      0x00\n        /* \"contracts/ProofOfHumanity.sol\":2402:2409  _idHash */\n      dup5\n        /* \"contracts/ProofOfHumanity.sol\":2393:2410  children[_idHash] */\n      dup2\n      mstore\n      0x20\n      add\n      swap1\n      dup2\n      mstore\n      0x20\n      add\n      0x00\n      keccak256\n        /* \"contracts/ProofOfHumanity.sol\":2372:2410  Child memory child = children[_idHash] */\n      mload(0x40)\n      dup1\n      0x60\n      add\n      0x40\n      mstore\n      swap1\n      dup2\n      0x00\n      dup3\n      add\n      sload\n      dup2\n      mstore\n      0x20\n      add\n      0x01\n      dup3\n      add\n      0x00\n      swap1\n      sload\n      swap1\n      0x0100\n      exp\n      swap1\n      div\n      0xffffffffffffffffffffffffffffffffffffffff\n      and\n      0xffffffffffffffffffffffffffffffffffffffff\n      and\n      0xffffffffffffffffffffffffffffffffffffffff\n      and\n      dup2\n      mstore\n      0x20\n      add\n      0x01\n      dup3\n      add\n      0x14\n      swap1\n      sload\n      swap1\n      0x0100\n      exp\n      swap1\n      div\n      0xff\n      and\n      iszero\n      iszero\n      iszero\n      iszero\n      dup2\n      mstore\n      pop\n      pop\n      swap1\n      pop\n        /* \"contracts/ProofOfHumanity.sol\":2427:2432  child */\n      dup1\n        /* \"contracts/ProofOfHumanity.sol\":2427:2439  child.active */\n      0x40\n      add\n      mload\n        /* \"contracts/ProofOfHumanity.sol\":2420:2439  return child.active */\n      swap2\n      pop\n      pop\n        /* \"contracts/ProofOfHumanity.sol\":2276:2446  function verifyChildAccess(bytes32 _idHash) external view onlyPlatform returns (bool) {... */\n      swap2\n      swap1\n      pop\n      jump\t// out\n        /* \"contracts/ProofOfHumanity.sol\":594:639  mapping(address => Platform) public platforms */\n    tag_33:\n      mstore(0x20, 0x02)\n      dup1\n      0x00\n      mstore\n      keccak256(0x00, 0x40)\n      0x00\n      swap2\n      pop\n      swap1\n      pop\n      dup1\n      0x00\n      add\n      dup1\n      sload\n      tag_64\n      swap1\n      tag_65\n      jump\t// in\n    tag_64:\n      dup1\n      0x1f\n      add\n      0x20\n      dup1\n      swap2\n      div\n      mul\n      0x20\n      add\n      mload(0x40)\n      swap1\n      dup2\n      add\n      0x40\n      mstore\n      dup1\n      swap3\n      swap2\n      swap1\n      dup2\n      dup2\n      mstore\n      0x20\n      add\n      dup3\n      dup1\n      sload\n      tag_66\n      swap1\n      tag_65\n      jump\t// in\n    tag_66:\n      dup1\n      iszero\n      tag_67\n      jumpi\n      dup1\n      0x1f\n      lt\n      tag_68\n      jumpi\n      0x0100\n      dup1\n      dup4\n      sload\n      div\n      mul\n      dup4\n      mstore\n      swap2\n      0x20\n      add\n      swap2\n      jump(tag_67)\n    tag_68:\n      dup3\n      add\n      swap2\n      swap1\n      0x00\n      mstore\n      keccak256(0x00, 0x20)\n      swap1\n    tag_69:\n      dup2\n      sload\n      dup2\n      mstore\n      swap1\n      0x01\n      add\n      swap1\n      0x20\n      add\n      dup1\n      dup4\n      gt\n      tag_69\n      jumpi\n      dup3\n      swap1\n      sub\n      0x1f\n      and\n      dup3\n      add\n      swap2\n    tag_67:\n      pop\n      pop\n      pop\n      pop\n      pop\n      swap1\n      dup1\n      0x01\n      add\n      0x00\n      swap1\n      sload\n      swap1\n      0x0100\n      exp\n      swap1\n      div\n      0xff\n      and\n      swap1\n      pop\n      dup3\n      jump\t// out\n        /* \"contracts/ProofOfHumanity.sol\":2484:2722  function revokeChildAccess(bytes32 _idHash) external {... */\n    tag_38:\n        /* \"contracts/ProofOfHumanity.sol\":2585:2595  msg.sender */\n      caller\n        /* \"contracts/ProofOfHumanity.sol\":2555:2595  children[_idHash].guardian == msg.sender */\n      0xffffffffffffffffffffffffffffffffffffffff\n      and\n        /* \"contracts/ProofOfHumanity.sol\":2555:2563  children */\n      0x00\n        /* \"contracts/ProofOfHumanity.sol\":2555:2572  children[_idHash] */\n      dup1\n        /* \"contracts/ProofOfHumanity.sol\":2564:2571  _idHash */\n      dup4\n        /* \"contracts/ProofOfHumanity.sol\":2555:2572  children[_idHash] */\n      dup2\n      mstore\n      0x20\n      add\n      swap1\n      dup2\n      mstore\n      0x20\n      add\n      0x00\n      keccak256\n        /* \"contracts/ProofOfHumanity.sol\":2555:2581  children[_idHash].guardian */\n      0x01\n      add\n      0x00\n      swap1\n      sload\n      swap1\n      0x0100\n      exp\n      swap1\n      div\n      0xffffffffffffffffffffffffffffffffffffffff\n      and\n        /* \"contracts/ProofOfHumanity.sol\":2555:2595  children[_idHash].guardian == msg.sender */\n      0xffffffffffffffffffffffffffffffffffffffff\n      and\n      eq\n        /* \"contracts/ProofOfHumanity.sol\":2547:2635  require(children[_idHash].guardian == msg.sender, \"Only the guardian can revoke access\") */\n      tag_71\n      jumpi\n      mload(0x40)\n      0x08c379a000000000000000000000000000000000000000000000000000000000\n      dup2\n      mstore\n      0x04\n      add\n      tag_72\n      swap1\n      tag_73\n      jump\t// in\n    tag_72:\n      mload(0x40)\n      dup1\n      swap2\n      sub\n      swap1\n      revert\n    tag_71:\n        /* \"contracts/ProofOfHumanity.sol\":2673:2678  false */\n      0x00\n        /* \"contracts/ProofOfHumanity.sol\":2646:2654  children */\n      dup1\n        /* \"contracts/ProofOfHumanity.sol\":2646:2663  children[_idHash] */\n      0x00\n        /* \"contracts/ProofOfHumanity.sol\":2655:2662  _idHash */\n      dup4\n        /* \"contracts/ProofOfHumanity.sol\":2646:2663  children[_idHash] */\n      dup2\n      mstore\n      0x20\n      add\n      swap1\n      dup2\n      mstore\n      0x20\n      add\n      0x00\n      keccak256\n        /* \"contracts/ProofOfHumanity.sol\":2646:2670  children[_idHash].active */\n      0x01\n      add\n      0x14\n        /* \"contracts/ProofOfHumanity.sol\":2646:2678  children[_idHash].active = false */\n      0x0100\n      exp\n      dup2\n      sload\n      dup2\n      0xff\n      mul\n      not\n      and\n      swap1\n      dup4\n      iszero\n      iszero\n      mul\n      or\n      swap1\n      sstore\n      pop\n        /* \"contracts/ProofOfHumanity.sol\":2707:2714  _idHash */\n      dup1\n        /* \"contracts/ProofOfHumanity.sol\":2693:2715  AccessRevoked(_idHash) */\n      0x0135da073807bb75b5ac08972e9dd63b72d73a01c65a5ed22fc25a53ed750d2c\n      mload(0x40)\n      mload(0x40)\n      dup1\n      swap2\n      sub\n      swap1\n      log2\n        /* \"contracts/ProofOfHumanity.sol\":2484:2722  function revokeChildAccess(bytes32 _idHash) external {... */\n      pop\n      jump\t// out\n        /* \"#utility.yul\":88:205   */\n    tag_75:\n        /* \"#utility.yul\":197:198   */\n      0x00\n        /* \"#utility.yul\":194:195   */\n      dup1\n        /* \"#utility.yul\":187:199   */\n      revert\n        /* \"#utility.yul\":211:328   */\n    tag_76:\n        /* \"#utility.yul\":320:321   */\n      0x00\n        /* \"#utility.yul\":317:318   */\n      dup1\n        /* \"#utility.yul\":310:322   */\n      revert\n        /* \"#utility.yul\":334:411   */\n    tag_77:\n        /* \"#utility.yul\":371:378   */\n      0x00\n        /* \"#utility.yul\":400:405   */\n      dup2\n        /* \"#utility.yul\":389:405   */\n      swap1\n      pop\n        /* \"#utility.yul\":334:411   */\n      swap2\n      swap1\n      pop\n      jump\t// out\n        /* \"#utility.yul\":417:539   */\n    tag_78:\n        /* \"#utility.yul\":490:514   */\n      tag_133\n        /* \"#utility.yul\":508:513   */\n      dup2\n        /* \"#utility.yul\":490:514   */\n      tag_77\n      jump\t// in\n    tag_133:\n        /* \"#utility.yul\":483:488   */\n      dup2\n        /* \"#utility.yul\":480:515   */\n      eq\n        /* \"#utility.yul\":470:533   */\n      tag_134\n      jumpi\n        /* \"#utility.yul\":529:530   */\n      0x00\n        /* \"#utility.yul\":526:527   */\n      dup1\n        /* \"#utility.yul\":519:531   */\n      revert\n        /* \"#utility.yul\":470:533   */\n    tag_134:\n        /* \"#utility.yul\":417:539   */\n      pop\n      jump\t// out\n        /* \"#utility.yul\":545:684   */\n    tag_79:\n        /* \"#utility.yul\":591:596   */\n      0x00\n        /* \"#utility.yul\":629:635   */\n      dup2\n        /* \"#utility.yul\":616:636   */\n      calldataload\n        /* \"#utility.yul\":607:636   */\n      swap1\n      pop\n        /* \"#utility.yul\":645:678   */\n      tag_136\n        /* \"#utility.yul\":672:677   */\n      dup2\n        /* \"#utility.yul\":645:678   */\n      tag_78\n      jump\t// in\n    tag_136:\n        /* \"#utility.yul\":545:684   */\n      swap3\n      swap2\n      pop\n      pop\n      jump\t// out\n        /* \"#utility.yul\":690:1019   */\n    tag_13:\n        /* \"#utility.yul\":749:755   */\n      0x00\n        /* \"#utility.yul\":798:800   */\n      0x20\n        /* \"#utility.yul\":786:795   */\n      dup3\n        /* \"#utility.yul\":777:784   */\n      dup5\n        /* \"#utility.yul\":773:796   */\n      sub\n        /* \"#utility.yul\":769:801   */\n      slt\n        /* \"#utility.yul\":766:885   */\n      iszero\n      tag_138\n      jumpi\n        /* \"#utility.yul\":804:883   */\n      tag_139\n      tag_75\n      jump\t// in\n    tag_139:\n        /* \"#utility.yul\":766:885   */\n    tag_138:\n        /* \"#utility.yul\":924:925   */\n      0x00\n        /* \"#utility.yul\":949:1002   */\n      tag_140\n        /* \"#utility.yul\":994:1001   */\n      dup5\n        /* \"#utility.yul\":985:991   */\n      dup3\n        /* \"#utility.yul\":974:983   */\n      dup6\n        /* \"#utility.yul\":970:992   */\n      add\n        /* \"#utility.yul\":949:1002   */\n      tag_79\n      jump\t// in\n    tag_140:\n        /* \"#utility.yul\":939:1002   */\n      swap2\n      pop\n        /* \"#utility.yul\":895:1012   */\n      pop\n        /* \"#utility.yul\":690:1019   */\n      swap3\n      swap2\n      pop\n      pop\n      jump\t// out\n        /* \"#utility.yul\":1025:1151   */\n    tag_80:\n        /* \"#utility.yul\":1062:1069   */\n      0x00\n        /* \"#utility.yul\":1102:1144   */\n      0xffffffffffffffffffffffffffffffffffffffff\n        /* \"#utility.yul\":1095:1100   */\n      dup3\n        /* \"#utility.yul\":1091:1145   */\n      and\n        /* \"#utility.yul\":1080:1145   */\n      swap1\n      pop\n        /* \"#utility.yul\":1025:1151   */\n      swap2\n      swap1\n      pop\n      jump\t// out\n        /* \"#utility.yul\":1157:1253   */\n    tag_81:\n        /* \"#utility.yul\":1194:1201   */\n      0x00\n        /* \"#utility.yul\":1223:1247   */\n      tag_143\n        /* \"#utility.yul\":1241:1246   */\n      dup3\n        /* \"#utility.yul\":1223:1247   */\n      tag_80\n      jump\t// in\n    tag_143:\n        /* \"#utility.yul\":1212:1247   */\n      swap1\n      pop\n        /* \"#utility.yul\":1157:1253   */\n      swap2\n      swap1\n      pop\n      jump\t// out\n        /* \"#utility.yul\":1259:1381   */\n    tag_82:\n        /* \"#utility.yul\":1332:1356   */\n      tag_145\n        /* \"#utility.yul\":1350:1355   */\n      dup2\n        /* \"#utility.yul\":1332:1356   */\n      tag_81\n      jump\t// in\n    tag_145:\n        /* \"#utility.yul\":1325:1330   */\n      dup2\n        /* \"#utility.yul\":1322:1357   */\n      eq\n        /* \"#utility.yul\":1312:1375   */\n      tag_146\n      jumpi\n        /* \"#utility.yul\":1371:1372   */\n      0x00\n        /* \"#utility.yul\":1368:1369   */\n      dup1\n        /* \"#utility.yul\":1361:1373   */\n      revert\n        /* \"#utility.yul\":1312:1375   */\n    tag_146:\n        /* \"#utility.yul\":1259:1381   */\n      pop\n      jump\t// out\n        /* \"#utility.yul\":1387:1526   */\n    tag_83:\n        /* \"#utility.yul\":1433:1438   */\n      0x00\n        /* \"#utility.yul\":1471:1477   */\n      dup2\n        /* \"#utility.yul\":1458:1478   */\n      calldataload\n        /* \"#utility.yul\":1449:1478   */\n      swap1\n      pop\n        /* \"#utility.yul\":1487:1520   */\n      tag_148\n        /* \"#utility.yul\":1514:1519   */\n      dup2\n        /* \"#utility.yul\":1487:1520   */\n      tag_82\n      jump\t// in\n    tag_148:\n        /* \"#utility.yul\":1387:1526   */\n      swap3\n      swap2\n      pop\n      pop\n      jump\t// out\n        /* \"#utility.yul\":1532:1861   */\n    tag_17:\n        /* \"#utility.yul\":1591:1597   */\n      0x00\n        /* \"#utility.yul\":1640:1642   */\n      0x20\n        /* \"#utility.yul\":1628:1637   */\n      dup3\n        /* \"#utility.yul\":1619:1626   */\n      dup5\n        /* \"#utility.yul\":1615:1638   */\n      sub\n        /* \"#utility.yul\":1611:1643   */\n      slt\n        /* \"#utility.yul\":1608:1727   */\n      iszero\n      tag_150\n      jumpi\n        /* \"#utility.yul\":1646:1725   */\n      tag_151\n      tag_75\n      jump\t// in\n    tag_151:\n        /* \"#utility.yul\":1608:1727   */\n    tag_150:\n        /* \"#utility.yul\":1766:1767   */\n      0x00\n        /* \"#utility.yul\":1791:1844   */\n      tag_152\n        /* \"#utility.yul\":1836:1843   */\n      dup5\n        /* \"#utility.yul\":1827:1833   */\n      dup3\n        /* \"#utility.yul\":1816:1825   */\n      dup6\n        /* \"#utility.yul\":1812:1834   */\n      add\n        /* \"#utility.yul\":1791:1844   */\n      tag_83\n      jump\t// in\n    tag_152:\n        /* \"#utility.yul\":1781:1844   */\n      swap2\n      pop\n        /* \"#utility.yul\":1737:1854   */\n      pop\n        /* \"#utility.yul\":1532:1861   */\n      swap3\n      swap2\n      pop\n      pop\n      jump\t// out\n        /* \"#utility.yul\":1867:1957   */\n    tag_84:\n        /* \"#utility.yul\":1901:1908   */\n      0x00\n        /* \"#utility.yul\":1944:1949   */\n      dup2\n        /* \"#utility.yul\":1937:1950   */\n      iszero\n        /* \"#utility.yul\":1930:1951   */\n      iszero\n        /* \"#utility.yul\":1919:1951   */\n      swap1\n      pop\n        /* \"#utility.yul\":1867:1957   */\n      swap2\n      swap1\n      pop\n      jump\t// out\n        /* \"#utility.yul\":1963:2072   */\n    tag_85:\n        /* \"#utility.yul\":2044:2065   */\n      tag_155\n        /* \"#utility.yul\":2059:2064   */\n      dup2\n        /* \"#utility.yul\":2044:2065   */\n      tag_84\n      jump\t// in\n    tag_155:\n        /* \"#utility.yul\":2039:2042   */\n      dup3\n        /* \"#utility.yul\":2032:2066   */\n      mstore\n        /* \"#utility.yul\":1963:2072   */\n      pop\n      pop\n      jump\t// out\n        /* \"#utility.yul\":2078:2288   */\n    tag_20:\n        /* \"#utility.yul\":2165:2169   */\n      0x00\n        /* \"#utility.yul\":2203:2205   */\n      0x20\n        /* \"#utility.yul\":2192:2201   */\n      dup3\n        /* \"#utility.yul\":2188:2206   */\n      add\n        /* \"#utility.yul\":2180:2206   */\n      swap1\n      pop\n        /* \"#utility.yul\":2216:2281   */\n      tag_157\n        /* \"#utility.yul\":2278:2279   */\n      0x00\n        /* \"#utility.yul\":2267:2276   */\n      dup4\n        /* \"#utility.yul\":2263:2280   */\n      add\n        /* \"#utility.yul\":2254:2260   */\n      dup5\n        /* \"#utility.yul\":2216:2281   */\n      tag_85\n      jump\t// in\n    tag_157:\n        /* \"#utility.yul\":2078:2288   */\n      swap3\n      swap2\n      pop\n      pop\n      jump\t// out\n        /* \"#utility.yul\":2294:2411   */\n    tag_86:\n        /* \"#utility.yul\":2403:2404   */\n      0x00\n        /* \"#utility.yul\":2400:2401   */\n      dup1\n        /* \"#utility.yul\":2393:2405   */\n      revert\n        /* \"#utility.yul\":2417:2534   */\n    tag_87:\n        /* \"#utility.yul\":2526:2527   */\n      0x00\n        /* \"#utility.yul\":2523:2524   */\n      dup1\n        /* \"#utility.yul\":2516:2528   */\n      revert\n        /* \"#utility.yul\":2540:2657   */\n    tag_88:\n        /* \"#utility.yul\":2649:2650   */\n      0x00\n        /* \"#utility.yul\":2646:2647   */\n      dup1\n        /* \"#utility.yul\":2639:2651   */\n      revert\n        /* \"#utility.yul\":2677:3230   */\n    tag_89:\n        /* \"#utility.yul\":2735:2743   */\n      0x00\n        /* \"#utility.yul\":2745:2751   */\n      dup1\n        /* \"#utility.yul\":2795:2798   */\n      dup4\n        /* \"#utility.yul\":2788:2792   */\n      0x1f\n        /* \"#utility.yul\":2780:2786   */\n      dup5\n        /* \"#utility.yul\":2776:2793   */\n      add\n        /* \"#utility.yul\":2772:2799   */\n      slt\n        /* \"#utility.yul\":2762:2884   */\n      tag_162\n      jumpi\n        /* \"#utility.yul\":2803:2882   */\n      tag_163\n      tag_86\n      jump\t// in\n    tag_163:\n        /* \"#utility.yul\":2762:2884   */\n    tag_162:\n        /* \"#utility.yul\":2916:2922   */\n      dup3\n        /* \"#utility.yul\":2903:2923   */\n      calldataload\n        /* \"#utility.yul\":2893:2923   */\n      swap1\n      pop\n        /* \"#utility.yul\":2946:2964   */\n      0xffffffffffffffff\n        /* \"#utility.yul\":2938:2944   */\n      dup2\n        /* \"#utility.yul\":2935:2965   */\n      gt\n        /* \"#utility.yul\":2932:3049   */\n      iszero\n      tag_164\n      jumpi\n        /* \"#utility.yul\":2968:3047   */\n      tag_165\n      tag_87\n      jump\t// in\n    tag_165:\n        /* \"#utility.yul\":2932:3049   */\n    tag_164:\n        /* \"#utility.yul\":3082:3086   */\n      0x20\n        /* \"#utility.yul\":3074:3080   */\n      dup4\n        /* \"#utility.yul\":3070:3087   */\n      add\n        /* \"#utility.yul\":3058:3087   */\n      swap2\n      pop\n        /* \"#utility.yul\":3136:3139   */\n      dup4\n        /* \"#utility.yul\":3128:3132   */\n      0x01\n        /* \"#utility.yul\":3120:3126   */\n      dup3\n        /* \"#utility.yul\":3116:3133   */\n      mul\n        /* \"#utility.yul\":3106:3114   */\n      dup4\n        /* \"#utility.yul\":3102:3134   */\n      add\n        /* \"#utility.yul\":3099:3140   */\n      gt\n        /* \"#utility.yul\":3096:3224   */\n      iszero\n      tag_166\n      jumpi\n        /* \"#utility.yul\":3143:3222   */\n      tag_167\n      tag_88\n      jump\t// in\n    tag_167:\n        /* \"#utility.yul\":3096:3224   */\n    tag_166:\n        /* \"#utility.yul\":2677:3230   */\n      swap3\n      pop\n      swap3\n      swap1\n      pop\n      jump\t// out\n        /* \"#utility.yul\":3236:3910   */\n    tag_25:\n        /* \"#utility.yul\":3316:3322   */\n      0x00\n        /* \"#utility.yul\":3324:3330   */\n      dup1\n        /* \"#utility.yul\":3332:3338   */\n      0x00\n        /* \"#utility.yul\":3381:3383   */\n      0x40\n        /* \"#utility.yul\":3369:3378   */\n      dup5\n        /* \"#utility.yul\":3360:3367   */\n      dup7\n        /* \"#utility.yul\":3356:3379   */\n      sub\n        /* \"#utility.yul\":3352:3384   */\n      slt\n        /* \"#utility.yul\":3349:3468   */\n      iszero\n      tag_169\n      jumpi\n        /* \"#utility.yul\":3387:3466   */\n      tag_170\n      tag_75\n      jump\t// in\n    tag_170:\n        /* \"#utility.yul\":3349:3468   */\n    tag_169:\n        /* \"#utility.yul\":3507:3508   */\n      0x00\n        /* \"#utility.yul\":3532:3585   */\n      tag_171\n        /* \"#utility.yul\":3577:3584   */\n      dup7\n        /* \"#utility.yul\":3568:3574   */\n      dup3\n        /* \"#utility.yul\":3557:3566   */\n      dup8\n        /* \"#utility.yul\":3553:3575   */\n      add\n        /* \"#utility.yul\":3532:3585   */\n      tag_83\n      jump\t// in\n    tag_171:\n        /* \"#utility.yul\":3522:3585   */\n      swap4\n      pop\n        /* \"#utility.yul\":3478:3595   */\n      pop\n        /* \"#utility.yul\":3662:3664   */\n      0x20\n        /* \"#utility.yul\":3651:3660   */\n      dup5\n        /* \"#utility.yul\":3647:3665   */\n      add\n        /* \"#utility.yul\":3634:3666   */\n      calldataload\n        /* \"#utility.yul\":3693:3711   */\n      0xffffffffffffffff\n        /* \"#utility.yul\":3685:3691   */\n      dup2\n        /* \"#utility.yul\":3682:3712   */\n      gt\n        /* \"#utility.yul\":3679:3796   */\n      iszero\n      tag_172\n      jumpi\n        /* \"#utility.yul\":3715:3794   */\n      tag_173\n      tag_76\n      jump\t// in\n    tag_173:\n        /* \"#utility.yul\":3679:3796   */\n    tag_172:\n        /* \"#utility.yul\":3828:3893   */\n      tag_174\n        /* \"#utility.yul\":3885:3892   */\n      dup7\n        /* \"#utility.yul\":3876:3882   */\n      dup3\n        /* \"#utility.yul\":3865:3874   */\n      dup8\n        /* \"#utility.yul\":3861:3883   */\n      add\n        /* \"#utility.yul\":3828:3893   */\n      tag_89\n      jump\t// in\n    tag_174:\n        /* \"#utility.yul\":3810:3893   */\n      swap3\n      pop\n      swap3\n      pop\n        /* \"#utility.yul\":3605:3903   */\n      pop\n        /* \"#utility.yul\":3236:3910   */\n      swap3\n      pop\n      swap3\n      pop\n      swap3\n      jump\t// out\n        /* \"#utility.yul\":3916:4015   */\n    tag_90:\n        /* \"#utility.yul\":3968:3974   */\n      0x00\n        /* \"#utility.yul\":4002:4007   */\n      dup2\n        /* \"#utility.yul\":3996:4008   */\n      mload\n        /* \"#utility.yul\":3986:4008   */\n      swap1\n      pop\n        /* \"#utility.yul\":3916:4015   */\n      swap2\n      swap1\n      pop\n      jump\t// out\n        /* \"#utility.yul\":4021:4190   */\n    tag_91:\n        /* \"#utility.yul\":4105:4116   */\n      0x00\n        /* \"#utility.yul\":4139:4145   */\n      dup3\n        /* \"#utility.yul\":4134:4137   */\n      dup3\n        /* \"#utility.yul\":4127:4146   */\n      mstore\n        /* \"#utility.yul\":4179:4183   */\n      0x20\n        /* \"#utility.yul\":4174:4177   */\n      dup3\n        /* \"#utility.yul\":4170:4184   */\n      add\n        /* \"#utility.yul\":4155:4184   */\n      swap1\n      pop\n        /* \"#utility.yul\":4021:4190   */\n      swap3\n      swap2\n      pop\n      pop\n      jump\t// out\n        /* \"#utility.yul\":4196:4335   */\n    tag_92:\n        /* \"#utility.yul\":4285:4291   */\n      dup3\n        /* \"#utility.yul\":4280:4283   */\n      dup2\n        /* \"#utility.yul\":4275:4278   */\n      dup4\n        /* \"#utility.yul\":4269:4292   */\n      mcopy\n        /* \"#utility.yul\":4326:4327   */\n      0x00\n        /* \"#utility.yul\":4317:4323   */\n      dup4\n        /* \"#utility.yul\":4312:4315   */\n      dup4\n        /* \"#utility.yul\":4308:4324   */\n      add\n        /* \"#utility.yul\":4301:4328   */\n      mstore\n        /* \"#utility.yul\":4196:4335   */\n      pop\n      pop\n      pop\n      jump\t// out\n        /* \"#utility.yul\":4341:4443   */\n    tag_93:\n        /* \"#utility.yul\":4382:4388   */\n      0x00\n        /* \"#utility.yul\":4433:4435   */\n      0x1f\n        /* \"#utility.yul\":4429:4436   */\n      not\n        /* \"#utility.yul\":4424:4426   */\n      0x1f\n        /* \"#utility.yul\":4417:4422   */\n      dup4\n        /* \"#utility.yul\":4413:4427   */\n      add\n        /* \"#utility.yul\":4409:4437   */\n      and\n        /* \"#utility.yul\":4399:4437   */\n      swap1\n      pop\n        /* \"#utility.yul\":4341:4443   */\n      swap2\n      swap1\n      pop\n      jump\t// out\n        /* \"#utility.yul\":4449:4826   */\n    tag_94:\n        /* \"#utility.yul\":4537:4540   */\n      0x00\n        /* \"#utility.yul\":4565:4604   */\n      tag_180\n        /* \"#utility.yul\":4598:4603   */\n      dup3\n        /* \"#utility.yul\":4565:4604   */\n      tag_90\n      jump\t// in\n    tag_180:\n        /* \"#utility.yul\":4620:4691   */\n      tag_181\n        /* \"#utility.yul\":4684:4690   */\n      dup2\n        /* \"#utility.yul\":4679:4682   */\n      dup6\n        /* \"#utility.yul\":4620:4691   */\n      tag_91\n      jump\t// in\n    tag_181:\n        /* \"#utility.yul\":4613:4691   */\n      swap4\n      pop\n        /* \"#utility.yul\":4700:4765   */\n      tag_182\n        /* \"#utility.yul\":4758:4764   */\n      dup2\n        /* \"#utility.yul\":4753:4756   */\n      dup6\n        /* \"#utility.yul\":4746:4750   */\n      0x20\n        /* \"#utility.yul\":4739:4744   */\n      dup7\n        /* \"#utility.yul\":4735:4751   */\n      add\n        /* \"#utility.yul\":4700:4765   */\n      tag_92\n      jump\t// in\n    tag_182:\n        /* \"#utility.yul\":4790:4819   */\n      tag_183\n        /* \"#utility.yul\":4812:4818   */\n      dup2\n        /* \"#utility.yul\":4790:4819   */\n      tag_93\n      jump\t// in\n    tag_183:\n        /* \"#utility.yul\":4785:4788   */\n      dup5\n        /* \"#utility.yul\":4781:4820   */\n      add\n        /* \"#utility.yul\":4774:4820   */\n      swap2\n      pop\n        /* \"#utility.yul\":4541:4826   */\n      pop\n        /* \"#utility.yul\":4449:4826   */\n      swap3\n      swap2\n      pop\n      pop\n      jump\t// out\n        /* \"#utility.yul\":4832:5243   */\n    tag_35:\n        /* \"#utility.yul\":4967:4971   */\n      0x00\n        /* \"#utility.yul\":5005:5007   */\n      0x40\n        /* \"#utility.yul\":4994:5003   */\n      dup3\n        /* \"#utility.yul\":4990:5008   */\n      add\n        /* \"#utility.yul\":4982:5008   */\n      swap1\n      pop\n        /* \"#utility.yul\":5054:5063   */\n      dup2\n        /* \"#utility.yul\":5048:5052   */\n      dup2\n        /* \"#utility.yul\":5044:5064   */\n      sub\n        /* \"#utility.yul\":5040:5041   */\n      0x00\n        /* \"#utility.yul\":5029:5038   */\n      dup4\n        /* \"#utility.yul\":5025:5042   */\n      add\n        /* \"#utility.yul\":5018:5065   */\n      mstore\n        /* \"#utility.yul\":5082:5160   */\n      tag_185\n        /* \"#utility.yul\":5155:5159   */\n      dup2\n        /* \"#utility.yul\":5146:5152   */\n      dup6\n        /* \"#utility.yul\":5082:5160   */\n      tag_94\n      jump\t// in\n    tag_185:\n        /* \"#utility.yul\":5074:5160   */\n      swap1\n      pop\n        /* \"#utility.yul\":5170:5236   */\n      tag_186\n        /* \"#utility.yul\":5232:5234   */\n      0x20\n        /* \"#utility.yul\":5221:5230   */\n      dup4\n        /* \"#utility.yul\":5217:5235   */\n      add\n        /* \"#utility.yul\":5208:5214   */\n      dup5\n        /* \"#utility.yul\":5170:5236   */\n      tag_85\n      jump\t// in\n    tag_186:\n        /* \"#utility.yul\":4832:5243   */\n      swap4\n      swap3\n      pop\n      pop\n      pop\n      jump\t// out\n        /* \"#utility.yul\":5249:5486   */\n    tag_95:\n        /* \"#utility.yul\":5389:5423   */\n      0x4f6e6c792061207265676973746572656420677561726469616e2063616e2070\n        /* \"#utility.yul\":5385:5386   */\n      0x00\n        /* \"#utility.yul\":5377:5383   */\n      dup3\n        /* \"#utility.yul\":5373:5387   */\n      add\n        /* \"#utility.yul\":5366:5424   */\n      mstore\n        /* \"#utility.yul\":5458:5478   */\n      0x6572666f726d207468697320616374696f6e0000000000000000000000000000\n        /* \"#utility.yul\":5453:5455   */\n      0x20\n        /* \"#utility.yul\":5445:5451   */\n      dup3\n        /* \"#utility.yul\":5441:5456   */\n      add\n        /* \"#utility.yul\":5434:5479   */\n      mstore\n        /* \"#utility.yul\":5249:5486   */\n      pop\n      jump\t// out\n        /* \"#utility.yul\":5492:5858   */\n    tag_96:\n        /* \"#utility.yul\":5634:5637   */\n      0x00\n        /* \"#utility.yul\":5655:5722   */\n      tag_189\n        /* \"#utility.yul\":5719:5721   */\n      0x32\n        /* \"#utility.yul\":5714:5717   */\n      dup4\n        /* \"#utility.yul\":5655:5722   */\n      tag_91\n      jump\t// in\n    tag_189:\n        /* \"#utility.yul\":5648:5722   */\n      swap2\n      pop\n        /* \"#utility.yul\":5731:5824   */\n      tag_190\n        /* \"#utility.yul\":5820:5823   */\n      dup3\n        /* \"#utility.yul\":5731:5824   */\n      tag_95\n      jump\t// in\n    tag_190:\n        /* \"#utility.yul\":5849:5851   */\n      0x40\n        /* \"#utility.yul\":5844:5847   */\n      dup3\n        /* \"#utility.yul\":5840:5852   */\n      add\n        /* \"#utility.yul\":5833:5852   */\n      swap1\n      pop\n        /* \"#utility.yul\":5492:5858   */\n      swap2\n      swap1\n      pop\n      jump\t// out\n        /* \"#utility.yul\":5864:6283   */\n    tag_42:\n        /* \"#utility.yul\":6030:6034   */\n      0x00\n        /* \"#utility.yul\":6068:6070   */\n      0x20\n        /* \"#utility.yul\":6057:6066   */\n      dup3\n        /* \"#utility.yul\":6053:6071   */\n      add\n        /* \"#utility.yul\":6045:6071   */\n      swap1\n      pop\n        /* \"#utility.yul\":6117:6126   */\n      dup2\n        /* \"#utility.yul\":6111:6115   */\n      dup2\n        /* \"#utility.yul\":6107:6127   */\n      sub\n        /* \"#utility.yul\":6103:6104   */\n      0x00\n        /* \"#utility.yul\":6092:6101   */\n      dup4\n        /* \"#utility.yul\":6088:6105   */\n      add\n        /* \"#utility.yul\":6081:6128   */\n      mstore\n        /* \"#utility.yul\":6145:6276   */\n      tag_192\n        /* \"#utility.yul\":6271:6275   */\n      dup2\n        /* \"#utility.yul\":6145:6276   */\n      tag_96\n      jump\t// in\n    tag_192:\n        /* \"#utility.yul\":6137:6276   */\n      swap1\n      pop\n        /* \"#utility.yul\":5864:6283   */\n      swap2\n      swap1\n      pop\n      jump\t// out\n        /* \"#utility.yul\":6289:6466   */\n    tag_97:\n        /* \"#utility.yul\":6429:6458   */\n      0x4368696c6420494420616c726561647920726567697374657265640000000000\n        /* \"#utility.yul\":6425:6426   */\n      0x00\n        /* \"#utility.yul\":6417:6423   */\n      dup3\n        /* \"#utility.yul\":6413:6427   */\n      add\n        /* \"#utility.yul\":6406:6459   */\n      mstore\n        /* \"#utility.yul\":6289:6466   */\n      pop\n      jump\t// out\n        /* \"#utility.yul\":6472:6838   */\n    tag_98:\n        /* \"#utility.yul\":6614:6617   */\n      0x00\n        /* \"#utility.yul\":6635:6702   */\n      tag_195\n        /* \"#utility.yul\":6699:6701   */\n      0x1b\n        /* \"#utility.yul\":6694:6697   */\n      dup4\n        /* \"#utility.yul\":6635:6702   */\n      tag_91\n      jump\t// in\n    tag_195:\n        /* \"#utility.yul\":6628:6702   */\n      swap2\n      pop\n        /* \"#utility.yul\":6711:6804   */\n      tag_196\n        /* \"#utility.yul\":6800:6803   */\n      dup3\n        /* \"#utility.yul\":6711:6804   */\n      tag_97\n      jump\t// in\n    tag_196:\n        /* \"#utility.yul\":6829:6831   */\n      0x20\n        /* \"#utility.yul\":6824:6827   */\n      dup3\n        /* \"#utility.yul\":6820:6832   */\n      add\n        /* \"#utility.yul\":6813:6832   */\n      swap1\n      pop\n        /* \"#utility.yul\":6472:6838   */\n      swap2\n      swap1\n      pop\n      jump\t// out\n        /* \"#utility.yul\":6844:7263   */\n    tag_46:\n        /* \"#utility.yul\":7010:7014   */\n      0x00\n        /* \"#utility.yul\":7048:7050   */\n      0x20\n        /* \"#utility.yul\":7037:7046   */\n      dup3\n        /* \"#utility.yul\":7033:7051   */\n      add\n        /* \"#utility.yul\":7025:7051   */\n      swap1\n      pop\n        /* \"#utility.yul\":7097:7106   */\n      dup2\n        /* \"#utility.yul\":7091:7095   */\n      dup2\n        /* \"#utility.yul\":7087:7107   */\n      sub\n        /* \"#utility.yul\":7083:7084   */\n      0x00\n        /* \"#utility.yul\":7072:7081   */\n      dup4\n        /* \"#utility.yul\":7068:7085   */\n      add\n        /* \"#utility.yul\":7061:7108   */\n      mstore\n        /* \"#utility.yul\":7125:7256   */\n      tag_198\n        /* \"#utility.yul\":7251:7255   */\n      dup2\n        /* \"#utility.yul\":7125:7256   */\n      tag_98\n      jump\t// in\n    tag_198:\n        /* \"#utility.yul\":7117:7256   */\n      swap1\n      pop\n        /* \"#utility.yul\":6844:7263   */\n      swap2\n      swap1\n      pop\n      jump\t// out\n        /* \"#utility.yul\":7269:7446   */\n    tag_99:\n        /* \"#utility.yul\":7409:7438   */\n      0x477561726469616e20616c726561647920726567697374657265640000000000\n        /* \"#utility.yul\":7405:7406   */\n      0x00\n        /* \"#utility.yul\":7397:7403   */\n      dup3\n        /* \"#utility.yul\":7393:7407   */\n      add\n        /* \"#utility.yul\":7386:7439   */\n      mstore\n        /* \"#utility.yul\":7269:7446   */\n      pop\n      jump\t// out\n        /* \"#utility.yul\":7452:7818   */\n    tag_100:\n        /* \"#utility.yul\":7594:7597   */\n      0x00\n        /* \"#utility.yul\":7615:7682   */\n      tag_201\n        /* \"#utility.yul\":7679:7681   */\n      0x1b\n        /* \"#utility.yul\":7674:7677   */\n      dup4\n        /* \"#utility.yul\":7615:7682   */\n      tag_91\n      jump\t// in\n    tag_201:\n        /* \"#utility.yul\":7608:7682   */\n      swap2\n      pop\n        /* \"#utility.yul\":7691:7784   */\n      tag_202\n        /* \"#utility.yul\":7780:7783   */\n      dup3\n        /* \"#utility.yul\":7691:7784   */\n      tag_99\n      jump\t// in\n    tag_202:\n        /* \"#utility.yul\":7809:7811   */\n      0x20\n        /* \"#utility.yul\":7804:7807   */\n      dup3\n        /* \"#utility.yul\":7800:7812   */\n      add\n        /* \"#utility.yul\":7793:7812   */\n      swap1\n      pop\n        /* \"#utility.yul\":7452:7818   */\n      swap2\n      swap1\n      pop\n      jump\t// out\n        /* \"#utility.yul\":7824:8243   */\n    tag_50:\n        /* \"#utility.yul\":7990:7994   */\n      0x00\n        /* \"#utility.yul\":8028:8030   */\n      0x20\n        /* \"#utility.yul\":8017:8026   */\n      dup3\n        /* \"#utility.yul\":8013:8031   */\n      add\n        /* \"#utility.yul\":8005:8031   */\n      swap1\n      pop\n        /* \"#utility.yul\":8077:8086   */\n      dup2\n        /* \"#utility.yul\":8071:8075   */\n      dup2\n        /* \"#utility.yul\":8067:8087   */\n      sub\n        /* \"#utility.yul\":8063:8064   */\n      0x00\n        /* \"#utility.yul\":8052:8061   */\n      dup4\n        /* \"#utility.yul\":8048:8065   */\n      add\n        /* \"#utility.yul\":8041:8088   */\n      mstore\n        /* \"#utility.yul\":8105:8236   */\n      tag_204\n        /* \"#utility.yul\":8231:8235   */\n      dup2\n        /* \"#utility.yul\":8105:8236   */\n      tag_100\n      jump\t// in\n    tag_204:\n        /* \"#utility.yul\":8097:8236   */\n      swap1\n      pop\n        /* \"#utility.yul\":7824:8243   */\n      swap2\n      swap1\n      pop\n      jump\t// out\n        /* \"#utility.yul\":8249:8426   */\n    tag_101:\n        /* \"#utility.yul\":8389:8418   */\n      0x506c6174666f726d20616c726561647920726567697374657265640000000000\n        /* \"#utility.yul\":8385:8386   */\n      0x00\n        /* \"#utility.yul\":8377:8383   */\n      dup3\n        /* \"#utility.yul\":8373:8387   */\n      add\n        /* \"#utility.yul\":8366:8419   */\n      mstore\n        /* \"#utility.yul\":8249:8426   */\n      pop\n      jump\t// out\n        /* \"#utility.yul\":8432:8798   */\n    tag_102:\n        /* \"#utility.yul\":8574:8577   */\n      0x00\n        /* \"#utility.yul\":8595:8662   */\n      tag_207\n        /* \"#utility.yul\":8659:8661   */\n      0x1b\n        /* \"#utility.yul\":8654:8657   */\n      dup4\n        /* \"#utility.yul\":8595:8662   */\n      tag_91\n      jump\t// in\n    tag_207:\n        /* \"#utility.yul\":8588:8662   */\n      swap2\n      pop\n        /* \"#utility.yul\":8671:8764   */\n      tag_208\n        /* \"#utility.yul\":8760:8763   */\n      dup3\n        /* \"#utility.yul\":8671:8764   */\n      tag_101\n      jump\t// in\n    tag_208:\n        /* \"#utility.yul\":8789:8791   */\n      0x20\n        /* \"#utility.yul\":8784:8787   */\n      dup3\n        /* \"#utility.yul\":8780:8792   */\n      add\n        /* \"#utility.yul\":8773:8792   */\n      swap1\n      pop\n        /* \"#utility.yul\":8432:8798   */\n      swap2\n      swap1\n      pop\n      jump\t// out\n        /* \"#utility.yul\":8804:9223   */\n    tag_54:\n        /* \"#utility.yul\":8970:8974   */\n      0x00\n        /* \"#utility.yul\":9008:9010   */\n      0x20\n        /* \"#utility.yul\":8997:9006   */\n      dup3\n        /* \"#utility.yul\":8993:9011   */\n      add\n        /* \"#utility.yul\":8985:9011   */\n      swap1\n      pop\n        /* \"#utility.yul\":9057:9066   */\n      dup2\n        /* \"#utility.yul\":9051:9055   */\n      dup2\n        /* \"#utility.yul\":9047:9067   */\n      sub\n        /* \"#utility.yul\":9043:9044   */\n      0x00\n        /* \"#utility.yul\":9032:9041   */\n      dup4\n        /* \"#utility.yul\":9028:9045   */\n      add\n        /* \"#utility.yul\":9021:9068   */\n      mstore\n        /* \"#utility.yul\":9085:9216   */\n      tag_210\n        /* \"#utility.yul\":9211:9215   */\n      dup2\n        /* \"#utility.yul\":9085:9216   */\n      tag_102\n      jump\t// in\n    tag_210:\n        /* \"#utility.yul\":9077:9216   */\n      swap1\n      pop\n        /* \"#utility.yul\":8804:9223   */\n      swap2\n      swap1\n      pop\n      jump\t// out\n        /* \"#utility.yul\":9229:9409   */\n    tag_103:\n        /* \"#utility.yul\":9277:9354   */\n      0x4e487b7100000000000000000000000000000000000000000000000000000000\n        /* \"#utility.yul\":9274:9275   */\n      0x00\n        /* \"#utility.yul\":9267:9355   */\n      mstore\n        /* \"#utility.yul\":9374:9378   */\n      0x41\n        /* \"#utility.yul\":9371:9372   */\n      0x04\n        /* \"#utility.yul\":9364:9379   */\n      mstore\n        /* \"#utility.yul\":9398:9402   */\n      0x24\n        /* \"#utility.yul\":9395:9396   */\n      0x00\n        /* \"#utility.yul\":9388:9403   */\n      revert\n        /* \"#utility.yul\":9415:9595   */\n    tag_104:\n        /* \"#utility.yul\":9463:9540   */\n      0x4e487b7100000000000000000000000000000000000000000000000000000000\n        /* \"#utility.yul\":9460:9461   */\n      0x00\n        /* \"#utility.yul\":9453:9541   */\n      mstore\n        /* \"#utility.yul\":9560:9564   */\n      0x22\n        /* \"#utility.yul\":9557:9558   */\n      0x04\n        /* \"#utility.yul\":9550:9565   */\n      mstore\n        /* \"#utility.yul\":9584:9588   */\n      0x24\n        /* \"#utility.yul\":9581:9582   */\n      0x00\n        /* \"#utility.yul\":9574:9589   */\n      revert\n        /* \"#utility.yul\":9601:9921   */\n    tag_65:\n        /* \"#utility.yul\":9645:9651   */\n      0x00\n        /* \"#utility.yul\":9682:9683   */\n      0x02\n        /* \"#utility.yul\":9676:9680   */\n      dup3\n        /* \"#utility.yul\":9672:9684   */\n      div\n        /* \"#utility.yul\":9662:9684   */\n      swap1\n      pop\n        /* \"#utility.yul\":9729:9730   */\n      0x01\n        /* \"#utility.yul\":9723:9727   */\n      dup3\n        /* \"#utility.yul\":9719:9731   */\n      and\n        /* \"#utility.yul\":9750:9768   */\n      dup1\n        /* \"#utility.yul\":9740:9821   */\n      tag_214\n      jumpi\n        /* \"#utility.yul\":9806:9810   */\n      0x7f\n        /* \"#utility.yul\":9798:9804   */\n      dup3\n        /* \"#utility.yul\":9794:9811   */\n      and\n        /* \"#utility.yul\":9784:9811   */\n      swap2\n      pop\n        /* \"#utility.yul\":9740:9821   */\n    tag_214:\n        /* \"#utility.yul\":9868:9870   */\n      0x20\n        /* \"#utility.yul\":9860:9866   */\n      dup3\n        /* \"#utility.yul\":9857:9871   */\n      lt\n        /* \"#utility.yul\":9837:9855   */\n      dup2\n        /* \"#utility.yul\":9834:9872   */\n      sub\n        /* \"#utility.yul\":9831:9915   */\n      tag_215\n      jumpi\n        /* \"#utility.yul\":9887:9905   */\n      tag_216\n      tag_104\n      jump\t// in\n    tag_216:\n        /* \"#utility.yul\":9831:9915   */\n    tag_215:\n        /* \"#utility.yul\":9652:9921   */\n      pop\n        /* \"#utility.yul\":9601:9921   */\n      swap2\n      swap1\n      pop\n      jump\t// out\n        /* \"#utility.yul\":9927:10068   */\n    tag_105:\n        /* \"#utility.yul\":9976:9980   */\n      0x00\n        /* \"#utility.yul\":9999:10002   */\n      dup2\n        /* \"#utility.yul\":9991:10002   */\n      swap1\n      pop\n        /* \"#utility.yul\":10022:10025   */\n      dup2\n        /* \"#utility.yul\":10019:10020   */\n      0x00\n        /* \"#utility.yul\":10012:10026   */\n      mstore\n        /* \"#utility.yul\":10056:10060   */\n      0x20\n        /* \"#utility.yul\":10053:10054   */\n      0x00\n        /* \"#utility.yul\":10043:10061   */\n      keccak256\n        /* \"#utility.yul\":10035:10061   */\n      swap1\n      pop\n        /* \"#utility.yul\":9927:10068   */\n      swap2\n      swap1\n      pop\n      jump\t// out\n        /* \"#utility.yul\":10074:10167   */\n    tag_106:\n        /* \"#utility.yul\":10111:10117   */\n      0x00\n        /* \"#utility.yul\":10158:10160   */\n      0x20\n        /* \"#utility.yul\":10153:10155   */\n      0x1f\n        /* \"#utility.yul\":10146:10151   */\n      dup4\n        /* \"#utility.yul\":10142:10156   */\n      add\n        /* \"#utility.yul\":10138:10161   */\n      div\n        /* \"#utility.yul\":10128:10161   */\n      swap1\n      pop\n        /* \"#utility.yul\":10074:10167   */\n      swap2\n      swap1\n      pop\n      jump\t// out\n        /* \"#utility.yul\":10173:10280   */\n    tag_107:\n        /* \"#utility.yul\":10217:10225   */\n      0x00\n        /* \"#utility.yul\":10267:10272   */\n      dup3\n        /* \"#utility.yul\":10261:10265   */\n      dup3\n        /* \"#utility.yul\":10257:10273   */\n      shl\n        /* \"#utility.yul\":10236:10273   */\n      swap1\n      pop\n        /* \"#utility.yul\":10173:10280   */\n      swap3\n      swap2\n      pop\n      pop\n      jump\t// out\n        /* \"#utility.yul\":10286:10679   */\n    tag_108:\n        /* \"#utility.yul\":10355:10361   */\n      0x00\n        /* \"#utility.yul\":10405:10406   */\n      0x08\n        /* \"#utility.yul\":10393:10403   */\n      dup4\n        /* \"#utility.yul\":10389:10407   */\n      mul\n        /* \"#utility.yul\":10428:10525   */\n      tag_221\n        /* \"#utility.yul\":10458:10524   */\n      0xffffffffffffffffffffffffffffffffffffffffffffffffffffffffffffffff\n        /* \"#utility.yul\":10447:10456   */\n      dup3\n        /* \"#utility.yul\":10428:10525   */\n      tag_107\n      jump\t// in\n    tag_221:\n        /* \"#utility.yul\":10546:10585   */\n      tag_222\n        /* \"#utility.yul\":10576:10584   */\n      dup7\n        /* \"#utility.yul\":10565:10574   */\n      dup4\n        /* \"#utility.yul\":10546:10585   */\n      tag_107\n      jump\t// in\n    tag_222:\n        /* \"#utility.yul\":10534:10585   */\n      swap6\n      pop\n        /* \"#utility.yul\":10618:10622   */\n      dup1\n        /* \"#utility.yul\":10614:10623   */\n      not\n        /* \"#utility.yul\":10607:10612   */\n      dup5\n        /* \"#utility.yul\":10603:10624   */\n      and\n        /* \"#utility.yul\":10594:10624   */\n      swap4\n      pop\n        /* \"#utility.yul\":10667:10671   */\n      dup1\n        /* \"#utility.yul\":10657:10665   */\n      dup7\n        /* \"#utility.yul\":10653:10672   */\n      and\n        /* \"#utility.yul\":10646:10651   */\n      dup5\n        /* \"#utility.yul\":10643:10673   */\n      or\n        /* \"#utility.yul\":10633:10673   */\n      swap3\n      pop\n        /* \"#utility.yul\":10362:10679   */\n      pop\n      pop\n        /* \"#utility.yul\":10286:10679   */\n      swap4\n      swap3\n      pop\n      pop\n      pop\n      jump\t// out\n        /* \"#utility.yul\":10685:10762   */\n    tag_109:\n        /* \"#utility.yul\":10722:10729   */\n      0x00\n        /* \"#utility.yul\":10751:10756   */\n      dup2\n        /* \"#utility.yul\":10740:10756   */\n      swap1\n      pop\n        /* \"#utility.yul\":10685:10762   */\n      swap2\n      swap1\n      pop\n      jump\t// out\n        /* \"#utility.yul\":10768:10828   */\n    tag_110:\n        /* \"#utility.yul\":10796:10799   */\n      0x00\n        /* \"#utility.yul\":10817:10822   */\n      dup2\n        /* \"#utility.yul\":10810:10822   */\n      swap1\n      pop\n        /* \"#utility.yul\":10768:10828   */\n      swap2\n      swap1\n      pop\n      jump\t// out\n        /* \"#utility.yul\":10834:10976   */\n    tag_111:\n        /* \"#utility.yul\":10884:10893   */\n      0x00\n        /* \"#utility.yul\":10917:10970   */\n      tag_226\n        /* \"#utility.yul\":10935:10969   */\n      tag_227\n        /* \"#utility.yul\":10944:10968   */\n      tag_228\n        /* \"#utility.yul\":10962:10967   */\n      dup5\n        /* \"#utility.yul\":10944:10968   */\n      tag_109\n      jump\t// in\n    tag_228:\n        /* \"#utility.yul\":10935:10969   */\n      tag_110\n      jump\t// in\n    tag_227:\n        /* \"#utility.yul\":10917:10970   */\n      tag_109\n      jump\t// in\n    tag_226:\n        /* \"#utility.yul\":10904:10970   */\n      swap1\n      pop\n        /* \"#utility.yul\":10834:10976   */\n      swap2\n      swap1\n      pop\n      jump\t// out\n        /* \"#utility.yul\":10982:11057   */\n    tag_112:\n        /* \"#utility.yul\":11025:11028   */\n      0x00\n        /* \"#utility.yul\":11046:11051   */\n      dup2\n        /* \"#utility.yul\":11039:11051   */\n      swap1\n      pop\n        /* \"#utility.yul\":10982:11057   */\n      swap2\n      swap1\n      pop\n      jump\t// out\n        /* \"#utility.yul\":11063:11332   */\n    tag_113:\n        /* \"#utility.yul\":11173:11212   */\n      tag_231\n        /* \"#utility.yul\":11204:11211   */\n      dup4\n        /* \"#utility.yul\":11173:11212   */\n      tag_111\n      jump\t// in\n    tag_231:\n        /* \"#utility.yul\":11234:11325   */\n      tag_232\n        /* \"#utility.yul\":11283:11324   */\n      tag_233\n        /* \"#utility.yul\":11307:11323   */\n      dup3\n        /* \"#utility.yul\":11283:11324   */\n      tag_112\n      jump\t// in\n    tag_233:\n        /* \"#utility.yul\":11275:11281   */\n      dup5\n        /* \"#utility.yul\":11268:11272   */\n      dup5\n        /* \"#utility.yul\":11262:11273   */\n      sload\n        /* \"#utility.yul\":11234:11325   */\n      tag_108\n      jump\t// in\n    tag_232:\n        /* \"#utility.yul\":11228:11232   */\n      dup3\n        /* \"#utility.yul\":11221:11326   */\n      sstore\n        /* \"#utility.yul\":11139:11332   */\n      pop\n        /* \"#utility.yul\":11063:11332   */\n      pop\n      pop\n      pop\n      jump\t// out\n        /* \"#utility.yul\":11338:11411   */\n    tag_114:\n        /* \"#utility.yul\":11383:11386   */\n      0x00\n        /* \"#utility.yul\":11338:11411   */\n      swap1\n      jump\t// out\n        /* \"#utility.yul\":11417:11606   */\n    tag_115:\n        /* \"#utility.yul\":11494:11526   */\n      tag_236\n      tag_114\n      jump\t// in\n    tag_236:\n        /* \"#utility.yul\":11535:11600   */\n      tag_237\n        /* \"#utility.yul\":11593:11599   */\n      dup2\n        /* \"#utility.yul\":11585:11591   */\n      dup5\n        /* \"#utility.yul\":11579:11583   */\n      dup5\n        /* \"#utility.yul\":11535:11600   */\n      tag_113\n      jump\t// in\n    tag_237:\n        /* \"#utility.yul\":11470:11606   */\n      pop\n        /* \"#utility.yul\":11417:11606   */\n      pop\n      pop\n      jump\t// out\n        /* \"#utility.yul\":11612:11798   */\n    tag_116:\n        /* \"#utility.yul\":11672:11792   */\n    tag_239:\n        /* \"#utility.yul\":11689:11692   */\n      dup2\n        /* \"#utility.yul\":11682:11687   */\n      dup2\n        /* \"#utility.yul\":11679:11693   */\n      lt\n        /* \"#utility.yul\":11672:11792   */\n      iszero\n      tag_241\n      jumpi\n        /* \"#utility.yul\":11743:11782   */\n      tag_242\n        /* \"#utility.yul\":11780:11781   */\n      0x00\n        /* \"#utility.yul\":11773:11778   */\n      dup3\n        /* \"#utility.yul\":11743:11782   */\n      tag_115\n      jump\t// in\n    tag_242:\n        /* \"#utility.yul\":11716:11717   */\n      0x01\n        /* \"#utility.yul\":11709:11714   */\n      dup2\n        /* \"#utility.yul\":11705:11718   */\n      add\n        /* \"#utility.yul\":11696:11718   */\n      swap1\n      pop\n        /* \"#utility.yul\":11672:11792   */\n      jump(tag_239)\n    tag_241:\n        /* \"#utility.yul\":11612:11798   */\n      pop\n      pop\n      jump\t// out\n        /* \"#utility.yul\":11804:12347   */\n    tag_117:\n        /* \"#utility.yul\":11905:11907   */\n      0x1f\n        /* \"#utility.yul\":11900:11903   */\n      dup3\n        /* \"#utility.yul\":11897:11908   */\n      gt\n        /* \"#utility.yul\":11894:12340   */\n      iszero\n      tag_244\n      jumpi\n        /* \"#utility.yul\":11939:11977   */\n      tag_245\n        /* \"#utility.yul\":11971:11976   */\n      dup2\n        /* \"#utility.yul\":11939:11977   */\n      tag_105\n      jump\t// in\n    tag_245:\n        /* \"#utility.yul\":12023:12052   */\n      tag_246\n        /* \"#utility.yul\":12041:12051   */\n      dup5\n        /* \"#utility.yul\":12023:12052   */\n      tag_106\n      jump\t// in\n    tag_246:\n        /* \"#utility.yul\":12013:12021   */\n      dup2\n        /* \"#utility.yul\":12009:12053   */\n      add\n        /* \"#utility.yul\":12206:12208   */\n      0x20\n        /* \"#utility.yul\":12194:12204   */\n      dup6\n        /* \"#utility.yul\":12191:12209   */\n      lt\n        /* \"#utility.yul\":12188:12237   */\n      iszero\n      tag_247\n      jumpi\n        /* \"#utility.yul\":12227:12235   */\n      dup2\n        /* \"#utility.yul\":12212:12235   */\n      swap1\n      pop\n        /* \"#utility.yul\":12188:12237   */\n    tag_247:\n        /* \"#utility.yul\":12250:12330   */\n      tag_248\n        /* \"#utility.yul\":12306:12328   */\n      tag_249\n        /* \"#utility.yul\":12324:12327   */\n      dup6\n        /* \"#utility.yul\":12306:12328   */\n      tag_106\n      jump\t// in\n    tag_249:\n        /* \"#utility.yul\":12296:12304   */\n      dup4\n        /* \"#utility.yul\":12292:12329   */\n      add\n        /* \"#utility.yul\":12279:12290   */\n      dup3\n        /* \"#utility.yul\":12250:12330   */\n      tag_116\n      jump\t// in\n    tag_248:\n        /* \"#utility.yul\":11909:12340   */\n      pop\n      pop\n        /* \"#utility.yul\":11894:12340   */\n    tag_244:\n        /* \"#utility.yul\":11804:12347   */\n      pop\n      pop\n      pop\n      jump\t// out\n        /* \"#utility.yul\":12353:12470   */\n    tag_118:\n        /* \"#utility.yul\":12407:12415   */\n      0x00\n        /* \"#utility.yul\":12457:12462   */\n      dup3\n        /* \"#utility.yul\":12451:12455   */\n      dup3\n        /* \"#utility.yul\":12447:12463   */\n      shr\n        /* \"#utility.yul\":12426:12463   */\n      swap1\n      pop\n        /* \"#utility.yul\":12353:12470   */\n      swap3\n      swap2\n      pop\n      pop\n      jump\t// out\n        /* \"#utility.yul\":12476:12645   */\n    tag_119:\n        /* \"#utility.yul\":12520:12526   */\n      0x00\n        /* \"#utility.yul\":12553:12604   */\n      tag_252\n        /* \"#utility.yul\":12601:12602   */\n      0x00\n        /* \"#utility.yul\":12597:12603   */\n      not\n        /* \"#utility.yul\":12589:12594   */\n      dup5\n        /* \"#utility.yul\":12586:12587   */\n      0x08\n        /* \"#utility.yul\":12582:12595   */\n      mul\n        /* \"#utility.yul\":12553:12604   */\n      tag_118\n      jump\t// in\n    tag_252:\n        /* \"#utility.yul\":12549:12605   */\n      not\n        /* \"#utility.yul\":12634:12638   */\n      dup1\n        /* \"#utility.yul\":12628:12632   */\n      dup4\n        /* \"#utility.yul\":12624:12639   */\n      and\n        /* \"#utility.yul\":12614:12639   */\n      swap2\n      pop\n        /* \"#utility.yul\":12527:12645   */\n      pop\n        /* \"#utility.yul\":12476:12645   */\n      swap3\n      swap2\n      pop\n      pop\n      jump\t// out\n        /* \"#utility.yul\":12650:12945   */\n    tag_120:\n        /* \"#utility.yul\":12726:12730   */\n      0x00\n        /* \"#utility.yul\":12872:12901   */\n      tag_254\n        /* \"#utility.yul\":12897:12900   */\n      dup4\n        /* \"#utility.yul\":12891:12895   */\n      dup4\n        /* \"#utility.yul\":12872:12901   */\n      tag_119\n      jump\t// in\n    tag_254:\n        /* \"#utility.yul\":12864:12901   */\n      swap2\n      pop\n        /* \"#utility.yul\":12934:12937   */\n      dup3\n        /* \"#utility.yul\":12931:12932   */\n      0x02\n        /* \"#utility.yul\":12927:12938   */\n      mul\n        /* \"#utility.yul\":12921:12925   */\n      dup3\n        /* \"#utility.yul\":12918:12939   */\n      or\n        /* \"#utility.yul\":12910:12939   */\n      swap1\n      pop\n        /* \"#utility.yul\":12650:12945   */\n      swap3\n      swap2\n      pop\n      pop\n      jump\t// out\n        /* \"#utility.yul\":12950:14345   */\n    tag_56:\n        /* \"#utility.yul\":13067:13104   */\n      tag_256\n        /* \"#utility.yul\":13100:13103   */\n      dup3\n        /* \"#utility.yul\":13067:13104   */\n      tag_90\n      jump\t// in\n    tag_256:\n        /* \"#utility.yul\":13169:13187   */\n      0xffffffffffffffff\n        /* \"#utility.yul\":13161:13167   */\n      dup2\n        /* \"#utility.yul\":13158:13188   */\n      gt\n        /* \"#utility.yul\":13155:13211   */\n      iszero\n      tag_257\n      jumpi\n        /* \"#utility.yul\":13191:13209   */\n      tag_258\n      tag_103\n      jump\t// in\n    tag_258:\n        /* \"#utility.yul\":13155:13211   */\n    tag_257:\n        /* \"#utility.yul\":13235:13273   */\n      tag_259\n        /* \"#utility.yul\":13267:13271   */\n      dup3\n        /* \"#utility.yul\":13261:13272   */\n      sload\n        /* \"#utility.yul\":13235:13273   */\n      tag_65\n      jump\t// in\n    tag_259:\n        /* \"#utility.yul\":13320:13387   */\n      tag_260\n        /* \"#utility.yul\":13380:13386   */\n      dup3\n        /* \"#utility.yul\":13372:13378   */\n      dup3\n        /* \"#utility.yul\":13366:13370   */\n      dup6\n        /* \"#utility.yul\":13320:13387   */\n      tag_117\n      jump\t// in\n    tag_260:\n        /* \"#utility.yul\":13414:13415   */\n      0x00\n        /* \"#utility.yul\":13438:13442   */\n      0x20\n        /* \"#utility.yul\":13425:13442   */\n      swap1\n      pop\n        /* \"#utility.yul\":13470:13472   */\n      0x1f\n        /* \"#utility.yul\":13462:13468   */\n      dup4\n        /* \"#utility.yul\":13459:13473   */\n      gt\n        /* \"#utility.yul\":13487:13488   */\n      0x01\n        /* \"#utility.yul\":13482:14100   */\n      dup2\n      eq\n      tag_262\n      jumpi\n        /* \"#utility.yul\":14144:14145   */\n      0x00\n        /* \"#utility.yul\":14161:14167   */\n      dup5\n        /* \"#utility.yul\":14158:14235   */\n      iszero\n      tag_263\n      jumpi\n        /* \"#utility.yul\":14210:14219   */\n      dup3\n        /* \"#utility.yul\":14205:14208   */\n      dup8\n        /* \"#utility.yul\":14201:14220   */\n      add\n        /* \"#utility.yul\":14195:14221   */\n      mload\n        /* \"#utility.yul\":14186:14221   */\n      swap1\n      pop\n        /* \"#utility.yul\":14158:14235   */\n    tag_263:\n        /* \"#utility.yul\":14261:14328   */\n      tag_264\n        /* \"#utility.yul\":14321:14327   */\n      dup6\n        /* \"#utility.yul\":14314:14319   */\n      dup3\n        /* \"#utility.yul\":14261:14328   */\n      tag_120\n      jump\t// in\n    tag_264:\n        /* \"#utility.yul\":14255:14259   */\n      dup7\n        /* \"#utility.yul\":14248:14329   */\n      sstore\n        /* \"#utility.yul\":14117:14339   */\n      pop\n        /* \"#utility.yul\":13452:14339   */\n      jump(tag_261)\n        /* \"#utility.yul\":13482:14100   */\n    tag_262:\n        /* \"#utility.yul\":13534:13538   */\n      0x1f\n        /* \"#utility.yul\":13530:13539   */\n      not\n        /* \"#utility.yul\":13522:13528   */\n      dup5\n        /* \"#utility.yul\":13518:13540   */\n      and\n        /* \"#utility.yul\":13568:13605   */\n      tag_265\n        /* \"#utility.yul\":13600:13604   */\n      dup7\n        /* \"#utility.yul\":13568:13605   */\n      tag_105\n      jump\t// in\n    tag_265:\n        /* \"#utility.yul\":13627:13628   */\n      0x00\n        /* \"#utility.yul\":13641:13849   */\n    tag_266:\n        /* \"#utility.yul\":13655:13662   */\n      dup3\n        /* \"#utility.yul\":13652:13653   */\n      dup2\n        /* \"#utility.yul\":13649:13663   */\n      lt\n        /* \"#utility.yul\":13641:13849   */\n      iszero\n      tag_268\n      jumpi\n        /* \"#utility.yul\":13734:13743   */\n      dup5\n        /* \"#utility.yul\":13729:13732   */\n      dup10\n        /* \"#utility.yul\":13725:13744   */\n      add\n        /* \"#utility.yul\":13719:13745   */\n      mload\n        /* \"#utility.yul\":13711:13717   */\n      dup3\n        /* \"#utility.yul\":13704:13746   */\n      sstore\n        /* \"#utility.yul\":13785:13786   */\n      0x01\n        /* \"#utility.yul\":13777:13783   */\n      dup3\n        /* \"#utility.yul\":13773:13787   */\n      add\n        /* \"#utility.yul\":13763:13787   */\n      swap2\n      pop\n        /* \"#utility.yul\":13832:13834   */\n      0x20\n        /* \"#utility.yul\":13821:13830   */\n      dup6\n        /* \"#utility.yul\":13817:13835   */\n      add\n        /* \"#utility.yul\":13804:13835   */\n      swap5\n      pop\n        /* \"#utility.yul\":13678:13682   */\n      0x20\n        /* \"#utility.yul\":13675:13676   */\n      dup2\n        /* \"#utility.yul\":13671:13683   */\n      add\n        /* \"#utility.yul\":13666:13683   */\n      swap1\n      pop\n        /* \"#utility.yul\":13641:13849   */\n      jump(tag_266)\n    tag_268:\n        /* \"#utility.yul\":13877:13883   */\n      dup7\n        /* \"#utility.yul\":13868:13875   */\n      dup4\n        /* \"#utility.yul\":13865:13884   */\n      lt\n        /* \"#utility.yul\":13862:14041   */\n      iszero\n      tag_269\n      jumpi\n        /* \"#utility.yul\":13935:13944   */\n      dup5\n        /* \"#utility.yul\":13930:13933   */\n      dup10\n        /* \"#utility.yul\":13926:13945   */\n      add\n        /* \"#utility.yul\":13920:13946   */\n      mload\n        /* \"#utility.yul\":13978:14026   */\n      tag_270\n        /* \"#utility.yul\":14020:14024   */\n      0x1f\n        /* \"#utility.yul\":14012:14018   */\n      dup10\n        /* \"#utility.yul\":14008:14025   */\n      and\n        /* \"#utility.yul\":13997:14006   */\n      dup3\n        /* \"#utility.yul\":13978:14026   */\n      tag_119\n      jump\t// in\n    tag_270:\n        /* \"#utility.yul\":13970:13976   */\n      dup4\n        /* \"#utility.yul\":13963:14027   */\n      sstore\n        /* \"#utility.yul\":13885:14041   */\n      pop\n        /* \"#utility.yul\":13862:14041   */\n    tag_269:\n        /* \"#utility.yul\":14087:14088   */\n      0x01\n        /* \"#utility.yul\":14083:14084   */\n      0x02\n        /* \"#utility.yul\":14075:14081   */\n      dup9\n        /* \"#utility.yul\":14071:14085   */\n      mul\n        /* \"#utility.yul\":14067:14089   */\n      add\n        /* \"#utility.yul\":14061:14065   */\n      dup9\n        /* \"#utility.yul\":14054:14090   */\n      sstore\n        /* \"#utility.yul\":13489:14100   */\n      pop\n      pop\n      pop\n        /* \"#utility.yul\":13452:14339   */\n    tag_261:\n      pop\n        /* \"#utility.yul\":13042:14345   */\n      pop\n      pop\n      pop\n        /* \"#utility.yul\":12950:14345   */\n      pop\n      pop\n      jump\t// out\n        /* \"#utility.yul\":14351:14499   */\n    tag_121:\n        /* \"#utility.yul\":14449:14455   */\n      dup3\n        /* \"#utility.yul\":14444:14447   */\n      dup2\n        /* \"#utility.yul\":14439:14442   */\n      dup4\n        /* \"#utility.yul\":14426:14456   */\n      calldatacopy\n        /* \"#utility.yul\":14490:14491   */\n      0x00\n        /* \"#utility.yul\":14481:14487   */\n      dup4\n        /* \"#utility.yul\":14476:14479   */\n      dup4\n        /* \"#utility.yul\":14472:14488   */\n      add\n        /* \"#utility.yul\":14465:14492   */\n      mstore\n        /* \"#utility.yul\":14351:14499   */\n      pop\n      pop\n      pop\n      jump\t// out\n        /* \"#utility.yul\":14529:14846   */\n    tag_122:\n        /* \"#utility.yul\":14627:14630   */\n      0x00\n        /* \"#utility.yul\":14648:14719   */\n      tag_273\n        /* \"#utility.yul\":14712:14718   */\n      dup4\n        /* \"#utility.yul\":14707:14710   */\n      dup6\n        /* \"#utility.yul\":14648:14719   */\n      tag_91\n      jump\t// in\n    tag_273:\n        /* \"#utility.yul\":14641:14719   */\n      swap4\n      pop\n        /* \"#utility.yul\":14729:14785   */\n      tag_274\n        /* \"#utility.yul\":14778:14784   */\n      dup4\n        /* \"#utility.yul\":14773:14776   */\n      dup6\n        /* \"#utility.yul\":14766:14771   */\n      dup5\n        /* \"#utility.yul\":14729:14785   */\n      tag_121\n      jump\t// in\n    tag_274:\n        /* \"#utility.yul\":14810:14839   */\n      tag_275\n        /* \"#utility.yul\":14832:14838   */\n      dup4\n        /* \"#utility.yul\":14810:14839   */\n      tag_93\n      jump\t// in\n    tag_275:\n        /* \"#utility.yul\":14805:14808   */\n      dup5\n        /* \"#utility.yul\":14801:14840   */\n      add\n        /* \"#utility.yul\":14794:14840   */\n      swap1\n      pop\n        /* \"#utility.yul\":14529:14846   */\n      swap4\n      swap3\n      pop\n      pop\n      pop\n      jump\t// out\n        /* \"#utility.yul\":14852:15185   */\n    tag_58:\n        /* \"#utility.yul\":14975:14979   */\n      0x00\n        /* \"#utility.yul\":15013:15015   */\n      0x20\n        /* \"#utility.yul\":15002:15011   */\n      dup3\n        /* \"#utility.yul\":14998:15016   */\n      add\n        /* \"#utility.yul\":14990:15016   */\n      swap1\n      pop\n        /* \"#utility.yul\":15062:15071   */\n      dup2\n        /* \"#utility.yul\":15056:15060   */\n      dup2\n        /* \"#utility.yul\":15052:15072   */\n      sub\n        /* \"#utility.yul\":15048:15049   */\n      0x00\n        /* \"#utility.yul\":15037:15046   */\n      dup4\n        /* \"#utility.yul\":15033:15050   */\n      add\n        /* \"#utility.yul\":15026:15073   */\n      mstore\n        /* \"#utility.yul\":15090:15178   */\n      tag_277\n        /* \"#utility.yul\":15173:15177   */\n      dup2\n        /* \"#utility.yul\":15164:15170   */\n      dup5\n        /* \"#utility.yul\":15156:15162   */\n      dup7\n        /* \"#utility.yul\":15090:15178   */\n      tag_122\n      jump\t// in\n    tag_277:\n        /* \"#utility.yul\":15082:15178   */\n      swap1\n      pop\n        /* \"#utility.yul\":14852:15185   */\n      swap4\n      swap3\n      pop\n      pop\n      pop\n      jump\t// out\n        /* \"#utility.yul\":15191:15426   */\n    tag_123:\n        /* \"#utility.yul\":15331:15365   */\n      0x4f6e6c79206120766572696669656420706c6174666f726d2063616e20706572\n        /* \"#utility.yul\":15327:15328   */\n      0x00\n        /* \"#utility.yul\":15319:15325   */\n      dup3\n        /* \"#utility.yul\":15315:15329   */\n      add\n        /* \"#utility.yul\":15308:15366   */\n      mstore\n        /* \"#utility.yul\":15400:15418   */\n      0x666f726d207468697320616374696f6e00000000000000000000000000000000\n        /* \"#utility.yul\":15395:15397   */\n      0x20\n        /* \"#utility.yul\":15387:15393   */\n      dup3\n        /* \"#utility.yul\":15383:15398   */\n      add\n        /* \"#utility.yul\":15376:15419   */\n      mstore\n        /* \"#utility.yul\":15191:15426   */\n      pop\n      jump\t// out\n        /* \"#utility.yul\":15432:15798   */\n    tag_124:\n        /* \"#utility.yul\":15574:15577   */\n      0x00\n        /* \"#utility.yul\":15595:15662   */\n      tag_280\n        /* \"#utility.yul\":15659:15661   */\n      0x30\n        /* \"#utility.yul\":15654:15657   */\n      dup4\n        /* \"#utility.yul\":15595:15662   */\n      tag_91\n      jump\t// in\n    tag_280:\n        /* \"#utility.yul\":15588:15662   */\n      swap2\n      pop\n        /* \"#utility.yul\":15671:15764   */\n      tag_281\n        /* \"#utility.yul\":15760:15763   */\n      dup3\n        /* \"#utility.yul\":15671:15764   */\n      tag_123\n      jump\t// in\n    tag_281:\n        /* \"#utility.yul\":15789:15791   */\n      0x40\n        /* \"#utility.yul\":15784:15787   */\n      dup3\n        /* \"#utility.yul\":15780:15792   */\n      add\n        /* \"#utility.yul\":15773:15792   */\n      swap1\n      pop\n        /* \"#utility.yul\":15432:15798   */\n      swap2\n      swap1\n      pop\n      jump\t// out\n        /* \"#utility.yul\":15804:16223   */\n    tag_62:\n        /* \"#utility.yul\":15970:15974   */\n      0x00\n        /* \"#utility.yul\":16008:16010   */\n      0x20\n        /* \"#utility.yul\":15997:16006   */\n      dup3\n        /* \"#utility.yul\":15993:16011   */\n      add\n        /* \"#utility.yul\":15985:16011   */\n      swap1\n      pop\n        /* \"#utility.yul\":16057:16066   */\n      dup2\n        /* \"#utility.yul\":16051:16055   */\n      dup2\n        /* \"#utility.yul\":16047:16067   */\n      sub\n        /* \"#utility.yul\":16043:16044   */\n      0x00\n        /* \"#utility.yul\":16032:16041   */\n      dup4\n        /* \"#utility.yul\":16028:16045   */\n      add\n        /* \"#utility.yul\":16021:16068   */\n      mstore\n        /* \"#utility.yul\":16085:16216   */\n      tag_283\n        /* \"#utility.yul\":16211:16215   */\n      dup2\n        /* \"#utility.yul\":16085:16216   */\n      tag_124\n      jump\t// in\n    tag_283:\n        /* \"#utility.yul\":16077:16216   */\n      swap1\n      pop\n        /* \"#utility.yul\":15804:16223   */\n      swap2\n      swap1\n      pop\n      jump\t// out\n        /* \"#utility.yul\":16229:16451   */\n    tag_125:\n        /* \"#utility.yul\":16369:16403   */\n      0x4f6e6c792074686520677561726469616e2063616e207265766f6b6520616363\n        /* \"#utility.yul\":16365:16366   */\n      0x00\n        /* \"#utility.yul\":16357:16363   */\n      dup3\n        /* \"#utility.yul\":16353:16367   */\n      add\n        /* \"#utility.yul\":16346:16404   */\n      mstore\n        /* \"#utility.yul\":16438:16443   */\n      0x6573730000000000000000000000000000000000000000000000000000000000\n        /* \"#utility.yul\":16433:16435   */\n      0x20\n        /* \"#utility.yul\":16425:16431   */\n      dup3\n        /* \"#utility.yul\":16421:16436   */\n      add\n        /* \"#utility.yul\":16414:16444   */\n      mstore\n        /* \"#utility.yul\":16229:16451   */\n      pop\n      jump\t// out\n        /* \"#utility.yul\":16457:16823   */\n    tag_126:\n        /* \"#utility.yul\":16599:16602   */\n      0x00\n        /* \"#utility.yul\":16620:16687   */\n      tag_286\n        /* \"#utility.yul\":16684:16686   */\n      0x23\n        /* \"#utility.yul\":16679:16682   */\n      dup4\n        /* \"#utility.yul\":16620:16687   */\n      tag_91\n      jump\t// in\n    tag_286:\n        /* \"#utility.yul\":16613:16687   */\n      swap2\n      pop\n        /* \"#utility.yul\":16696:16789   */\n      tag_287\n        /* \"#utility.yul\":16785:16788   */\n      dup3\n        /* \"#utility.yul\":16696:16789   */\n      tag_125\n      jump\t// in\n    tag_287:\n        /* \"#utility.yul\":16814:16816   */\n      0x40\n        /* \"#utility.yul\":16809:16812   */\n      dup3\n        /* \"#utility.yul\":16805:16817   */\n      add\n        /* \"#utility.yul\":16798:16817   */\n      swap1\n      pop\n        /* \"#utility.yul\":16457:16823   */\n      swap2\n      swap1\n      pop\n      jump\t// out\n        /* \"#utility.yul\":16829:17248   */\n    tag_73:\n        /* \"#utility.yul\":16995:16999   */\n      0x00\n        /* \"#utility.yul\":17033:17035   */\n      0x20\n        /* \"#utility.yul\":17022:17031   */\n      dup3\n        /* \"#utility.yul\":17018:17036   */\n      add\n        /* \"#utility.yul\":17010:17036   */\n      swap1\n      pop\n        /* \"#utility.yul\":17082:17091   */\n      dup2\n        /* \"#utility.yul\":17076:17080   */\n      dup2\n        /* \"#utility.yul\":17072:17092   */\n      sub\n        /* \"#utility.yul\":17068:17069   */\n      0x00\n        /* \"#utility.yul\":17057:17066   */\n      dup4\n        /* \"#utility.yul\":17053:17070   */\n      add\n        /* \"#utility.yul\":17046:17093   */\n      mstore\n        /* \"#utility.yul\":17110:17241   */\n      tag_289\n        /* \"#utility.yul\":17236:17240   */\n      dup2\n        /* \"#utility.yul\":17110:17241   */\n      tag_126\n      jump\t// in\n    tag_289:\n        /* \"#utility.yul\":17102:17241   */\n      swap1\n      pop\n        /* \"#utility.yul\":16829:17248   */\n      swap2\n      swap1\n      pop\n      jump\t// out\n\n    auxdata: 0xa26469706673582212200403a34fc2b264e3a42c9380b7ae29af3dce624afd290773e0c5c8166986490664736f6c634300081a0033\n}\n",
				"bytecode": {
					"linkReferences": {},
					"object": "6080604052348015600e575f80fd5b5061124e8061001c5f395ff3fe608060405234801561000f575f80fd5b506004361061007b575f3560e01c80638577ee23116100595780638577ee23146100d5578063a47c7816146100f1578063d131338414610121578063fe77205f146101525761007b565b8063045d636d1461007f5780630633b14a1461009b5780634dbe8fdc146100cb575b5f80fd5b6100996004803603810190610094919061099c565b61016e565b005b6100b560048036038101906100b09190610a21565b610393565b6040516100c29190610a66565b60405180910390f35b6100d36103b0565b005b6100ef60048036038101906100ea9190610ae0565b6104d3565b005b61010b6004803603810190610106919061099c565b610683565b6040516101189190610a66565b60405180910390f35b61013b60048036038101906101369190610a21565b6107b4565b604051610149929190610bad565b60405180910390f35b61016c6004803603810190610167919061099c565b610866565b005b60015f3373ffffffffffffffffffffffffffffffffffffffff1673ffffffffffffffffffffffffffffffffffffffff1681526020019081526020015f205f9054906101000a900460ff166101f7576040517f08c379a00000000000000000000000000000000000000000000000000000000081526004016101ee90610c4b565b60405180910390fd5b5f73ffffffffffffffffffffffffffffffffffffffff165f808381526020019081526020015f206001015f9054906101000a900473ffffffffffffffffffffffffffffffffffffffff1673ffffffffffffffffffffffffffffffffffffffff1614610297576040517f08c379a000000000000000000000000000000000000000000000000000000000815260040161028e90610cb3565b60405180910390fd5b60405180606001604052808281526020013373ffffffffffffffffffffffffffffffffffffffff168152602001600115158152505f808381526020019081526020015f205f820151815f01556020820151816001015f6101000a81548173ffffffffffffffffffffffffffffffffffffffff021916908373ffffffffffffffffffffffffffffffffffffffff16021790555060408201518160010160146101000a81548160ff0219169083151502179055509050503373ffffffffffffffffffffffffffffffffffffffff16817ff038f8a96dc41c1c59d86d2e81663ff567601c4a9a921a3e581ede01a19ef3ef60405160405180910390a350565b6001602052805f5260405f205f915054906101000a900460ff1681565b60015f3373ffffffffffffffffffffffffffffffffffffffff1673ffffffffffffffffffffffffffffffffffffffff1681526020019081526020015f205f9054906101000a900460ff161561043a576040517f08c379a000000000000000000000000000000000000000000000000000000000815260040161043190610d1b565b60405180910390fd5b6001805f3373ffffffffffffffffffffffffffffffffffffffff1673ffffffffffffffffffffffffffffffffffffffff1681526020019081526020015f205f6101000a81548160ff0219169083151502179055503373ffffffffffffffffffffffffffffffffffffffff167fc2d72ac93e7fb29c534663a530cd3db012d5c336965e423e0ed5ee7a64ed874560405160405180910390a2565b60025f8473ffffffffffffffffffffffffffffffffffffffff1673ffffffffffffffffffffffffffffffffffffffff1681526020019081526020015f206001015f9054906101000a900460ff1615610560576040517f08c379a000000000000000000000000000000000000000000000000000000000815260040161055790610d83565b60405180910390fd5b604051806040016040528083838080601f0160208091040260200160405190810160405280939291908181526020018383808284375f81840152601f19601f8201169050808301925050505050505081526020016001151581525060025f8573ffffffffffffffffffffffffffffffffffffffff1673ffffffffffffffffffffffffffffffffffffffff1681526020019081526020015f205f820151815f01908161060b9190610fd1565b506020820151816001015f6101000a81548160ff0219169083151502179055509050508273ffffffffffffffffffffffffffffffffffffffff167f95889e852bd8c32e4bd5a807723a13c8dbf0598b5e1dcdd1f609c0e79d169dfe83836040516106769291906110da565b60405180910390a2505050565b5f60025f3373ffffffffffffffffffffffffffffffffffffffff1673ffffffffffffffffffffffffffffffffffffffff1681526020019081526020015f206001015f9054906101000a900460ff16610710576040517f08c379a00000000000000000000000000000000000000000000000000000000081526004016107079061116c565b60405180910390fd5b5f805f8481526020019081526020015f206040518060600160405290815f8201548152602001600182015f9054906101000a900473ffffffffffffffffffffffffffffffffffffffff1673ffffffffffffffffffffffffffffffffffffffff1673ffffffffffffffffffffffffffffffffffffffff1681526020016001820160149054906101000a900460ff16151515158152505090508060400151915050919050565b6002602052805f5260405f205f91509050805f0180546107d390610dfb565b80601f01602080910402602001604051908101604052809291908181526020018280546107ff90610dfb565b801561084a5780601f106108215761010080835404028352916020019161084a565b820191905f5260205f20905b81548152906001019060200180831161082d57829003601f168201915b505050505090806001015f9054906101000a900460ff16905082565b3373ffffffffffffffffffffffffffffffffffffffff165f808381526020019081526020015f206001015f9054906101000a900473ffffffffffffffffffffffffffffffffffffffff1673ffffffffffffffffffffffffffffffffffffffff1614610906576040517f08c379a00000000000000000000000000000000000000000000000000000000081526004016108fd906111fa565b60405180910390fd5b5f805f8381526020019081526020015f2060010160146101000a81548160ff021916908315150217905550807f0135da073807bb75b5ac08972e9dd63b72d73a01c65a5ed22fc25a53ed750d2c60405160405180910390a250565b5f80fd5b5f80fd5b5f819050919050565b61097b81610969565b8114610985575f80fd5b50565b5f8135905061099681610972565b92915050565b5f602082840312156109b1576109b0610961565b5b5f6109be84828501610988565b91505092915050565b5f73ffffffffffffffffffffffffffffffffffffffff82169050919050565b5f6109f0826109c7565b9050919050565b610a00816109e6565b8114610a0a575f80fd5b50565b5f81359050610a1b816109f7565b92915050565b5f60208284031215610a3657610a35610961565b5b5f610a4384828501610a0d565b91505092915050565b5f8115159050919050565b610a6081610a4c565b82525050565b5f602082019050610a795f830184610a57565b92915050565b5f80fd5b5f80fd5b5f80fd5b5f8083601f840112610aa057610a9f610a7f565b5b8235905067ffffffffffffffff811115610abd57610abc610a83565b5b602083019150836001820283011115610ad957610ad8610a87565b5b9250929050565b5f805f60408486031215610af757610af6610961565b5b5f610b0486828701610a0d565b935050602084013567ffffffffffffffff811115610b2557610b24610965565b5b610b3186828701610a8b565b92509250509250925092565b5f81519050919050565b5f82825260208201905092915050565b8281835e5f83830152505050565b5f601f19601f8301169050919050565b5f610b7f82610b3d565b610b898185610b47565b9350610b99818560208601610b57565b610ba281610b65565b840191505092915050565b5f6040820190508181035f830152610bc58185610b75565b9050610bd46020830184610a57565b9392505050565b7f4f6e6c792061207265676973746572656420677561726469616e2063616e20705f8201527f6572666f726d207468697320616374696f6e0000000000000000000000000000602082015250565b5f610c35603283610b47565b9150610c4082610bdb565b604082019050919050565b5f6020820190508181035f830152610c6281610c29565b9050919050565b7f4368696c6420494420616c7265616479207265676973746572656400000000005f82015250565b5f610c9d601b83610b47565b9150610ca882610c69565b602082019050919050565b5f6020820190508181035f830152610cca81610c91565b9050919050565b7f477561726469616e20616c7265616479207265676973746572656400000000005f82015250565b5f610d05601b83610b47565b9150610d1082610cd1565b602082019050919050565b5f6020820190508181035f830152610d3281610cf9565b9050919050565b7f506c6174666f726d20616c7265616479207265676973746572656400000000005f82015250565b5f610d6d601b83610b47565b9150610d7882610d39565b602082019050919050565b5f6020820190508181035f830152610d9a81610d61565b9050919050565b7f4e487b71000000000000000000000000000000000000000000000000000000005f52604160045260245ffd5b7f4e487b71000000000000000000000000000000000000000000000000000000005f52602260045260245ffd5b5f6002820490506001821680610e1257607f821691505b602082108103610e2557610e24610dce565b5b50919050565b5f819050815f5260205f209050919050565b5f6020601f8301049050919050565b5f82821b905092915050565b5f60088302610e877fffffffffffffffffffffffffffffffffffffffffffffffffffffffffffffffff82610e4c565b610e918683610e4c565b95508019841693508086168417925050509392505050565b5f819050919050565b5f819050919050565b5f610ed5610ed0610ecb84610ea9565b610eb2565b610ea9565b9050919050565b5f819050919050565b610eee83610ebb565b610f02610efa82610edc565b848454610e58565b825550505050565b5f90565b610f16610f0a565b610f21818484610ee5565b505050565b5b81811015610f4457610f395f82610f0e565b600181019050610f27565b5050565b601f821115610f8957610f5a81610e2b565b610f6384610e3d565b81016020851015610f72578190505b610f86610f7e85610e3d565b830182610f26565b50505b505050565b5f82821c905092915050565b5f610fa95f1984600802610f8e565b1980831691505092915050565b5f610fc18383610f9a565b9150826002028217905092915050565b610fda82610b3d565b67ffffffffffffffff811115610ff357610ff2610da1565b5b610ffd8254610dfb565b611008828285610f48565b5f60209050601f831160018114611039575f8415611027578287015190505b6110318582610fb6565b865550611098565b601f19841661104786610e2b565b5f5b8281101561106e57848901518255600182019150602085019450602081019050611049565b8683101561108b5784890151611087601f891682610f9a565b8355505b6001600288020188555050505b505050505050565b828183375f83830152505050565b5f6110b98385610b47565b93506110c68385846110a0565b6110cf83610b65565b840190509392505050565b5f6020820190508181035f8301526110f38184866110ae565b90509392505050565b7f4f6e6c79206120766572696669656420706c6174666f726d2063616e207065725f8201527f666f726d207468697320616374696f6e00000000000000000000000000000000602082015250565b5f611156603083610b47565b9150611161826110fc565b604082019050919050565b5f6020820190508181035f8301526111838161114a565b9050919050565b7f4f6e6c792074686520677561726469616e2063616e207265766f6b65206163635f8201527f6573730000000000000000000000000000000000000000000000000000000000602082015250565b5f6111e4602383610b47565b91506111ef8261118a565b604082019050919050565b5f6020820190508181035f830152611211816111d8565b905091905056fea26469706673582212200403a34fc2b264e3a42c9380b7ae29af3dce624afd290773e0c5c8166986490664736f6c634300081a0033",
					"opcodes": "PUSH1 0x80 PUSH1 0x40 MSTORE CALLVALUE DUP1 ISZERO PUSH1 0xE JUMPI PUSH0 DUP1 REVERT JUMPDEST POP PUSH2 0x124E DUP1 PUSH2 0x1C PUSH0 CODECOPY PUSH0 RETURN INVALID PUSH1 0x80 PUSH1 0x40 MSTORE CALLVALUE DUP1 ISZERO PUSH2 0xF JUMPI PUSH0 DUP1 REVERT JUMPDEST POP PUSH1 0x4 CALLDATASIZE LT PUSH2 0x7B JUMPI PUSH0 CALLDATALOAD PUSH1 0xE0 SHR DUP1 PUSH4 0x8577EE23 GT PUSH2 0x59 JUMPI DUP1 PUSH4 0x8577EE23 EQ PUSH2 0xD5 JUMPI DUP1 PUSH4 0xA47C7816 EQ PUSH2 0xF1 JUMPI DUP1 PUSH4 0xD1313384 EQ PUSH2 0x121 JUMPI DUP1 PUSH4 0xFE77205F EQ PUSH2 0x152 JUMPI PUSH2 0x7B JUMP JUMPDEST DUP1 PUSH4 0x45D636D EQ PUSH2 0x7F JUMPI DUP1 PUSH4 0x633B14A EQ PUSH2 0x9B JUMPI DUP1 PUSH4 0x4DBE8FDC EQ PUSH2 0xCB JUMPI JUMPDEST PUSH0 DUP1 REVERT JUMPDEST PUSH2 0x99 PUSH1 0x4 DUP1 CALLDATASIZE SUB DUP2 ADD SWAP1 PUSH2 0x94 SWAP2 SWAP1 PUSH2 0x99C JUMP JUMPDEST PUSH2 0x16E JUMP JUMPDEST STOP JUMPDEST PUSH2 0xB5 PUSH1 0x4 DUP1 CALLDATASIZE SUB DUP2 ADD SWAP1 PUSH2 0xB0 SWAP2 SWAP1 PUSH2 0xA21 JUMP JUMPDEST PUSH2 0x393 JUMP JUMPDEST PUSH1 0x40 MLOAD PUSH2 0xC2 SWAP2 SWAP1 PUSH2 0xA66 JUMP JUMPDEST PUSH1 0x40 MLOAD DUP1 SWAP2 SUB SWAP1 RETURN JUMPDEST PUSH2 0xD3 PUSH2 0x3B0 JUMP JUMPDEST STOP JUMPDEST PUSH2 0xEF PUSH1 0x4 DUP1 CALLDATASIZE SUB DUP2 ADD SWAP1 PUSH2 0xEA SWAP2 SWAP1 PUSH2 0xAE0 JUMP JUMPDEST PUSH2 0x4D3 JUMP JUMPDEST STOP JUMPDEST PUSH2 0x10B PUSH1 0x4 DUP1 CALLDATASIZE SUB DUP2 ADD SWAP1 PUSH2 0x106 SWAP2 SWAP1 PUSH2 0x99C JUMP JUMPDEST PUSH2 0x683 JUMP JUMPDEST PUSH1 0x40 MLOAD PUSH2 0x118 SWAP2 SWAP1 PUSH2 0xA66 JUMP JUMPDEST PUSH1 0x40 MLOAD DUP1 SWAP2 SUB SWAP1 RETURN JUMPDEST PUSH2 0x13B PUSH1 0x4 DUP1 CALLDATASIZE SUB DUP2 ADD SWAP1 PUSH2 0x136 SWAP2 SWAP1 PUSH2 0xA21 JUMP JUMPDEST PUSH2 0x7B4 JUMP JUMPDEST PUSH1 0x40 MLOAD PUSH2 0x149 SWAP3 SWAP2 SWAP1 PUSH2 0xBAD JUMP JUMPDEST PUSH1 0x40 MLOAD DUP1 SWAP2 SUB SWAP1 RETURN JUMPDEST PUSH2 0x16C PUSH1 0x4 DUP1 CALLDATASIZE SUB DUP2 ADD SWAP1 PUSH2 0x167 SWAP2 SWAP1 PUSH2 0x99C JUMP JUMPDEST PUSH2 0x866 JUMP JUMPDEST STOP JUMPDEST PUSH1 0x1 PUSH0 CALLER PUSH20 0xFFFFFFFFFFFFFFFFFFFFFFFFFFFFFFFFFFFFFFFF AND PUSH20 0xFFFFFFFFFFFFFFFFFFFFFFFFFFFFFFFFFFFFFFFF AND DUP2 MSTORE PUSH1 0x20 ADD SWAP1 DUP2 MSTORE PUSH1 0x20 ADD PUSH0 KECCAK256 PUSH0 SWAP1 SLOAD SWAP1 PUSH2 0x100 EXP SWAP1 DIV PUSH1 0xFF AND PUSH2 0x1F7 JUMPI PUSH1 0x40 MLOAD PUSH32 0x8C379A000000000000000000000000000000000000000000000000000000000 DUP2 MSTORE PUSH1 0x4 ADD PUSH2 0x1EE SWAP1 PUSH2 0xC4B JUMP JUMPDEST PUSH1 0x40 MLOAD DUP1 SWAP2 SUB SWAP1 REVERT JUMPDEST PUSH0 PUSH20 0xFFFFFFFFFFFFFFFFFFFFFFFFFFFFFFFFFFFFFFFF AND PUSH0 DUP1 DUP4 DUP2 MSTORE PUSH1 0x20 ADD SWAP1 DUP2 MSTORE PUSH1 0x20 ADD PUSH0 KECCAK256 PUSH1 0x1 ADD PUSH0 SWAP1 SLOAD SWAP1 PUSH2 0x100 EXP SWAP1 DIV PUSH20 0xFFFFFFFFFFFFFFFFFFFFFFFFFFFFFFFFFFFFFFFF AND PUSH20 0xFFFFFFFFFFFFFFFFFFFFFFFFFFFFFFFFFFFFFFFF AND EQ PUSH2 0x297 JUMPI PUSH1 0x40 MLOAD PUSH32 0x8C379A000000000000000000000000000000000000000000000000000000000 DUP2 MSTORE PUSH1 0x4 ADD PUSH2 0x28E SWAP1 PUSH2 0xCB3 JUMP JUMPDEST PUSH1 0x40 MLOAD DUP1 SWAP2 SUB SWAP1 REVERT JUMPDEST PUSH1 0x40 MLOAD DUP1 PUSH1 0x60 ADD PUSH1 0x40 MSTORE DUP1 DUP3 DUP2 MSTORE PUSH1 0x20 ADD CALLER PUSH20 0xFFFFFFFFFFFFFFFFFFFFFFFFFFFFFFFFFFFFFFFF AND DUP2 MSTORE PUSH1 0x20 ADD PUSH1 0x1 ISZERO ISZERO DUP2 MSTORE POP PUSH0 DUP1 DUP4 DUP2 MSTORE PUSH1 0x20 ADD SWAP1 DUP2 MSTORE PUSH1 0x20 ADD PUSH0 KECCAK256 PUSH0 DUP3 ADD MLOAD DUP2 PUSH0 ADD SSTORE PUSH1 0x20 DUP3 ADD MLOAD DUP2 PUSH1 0x1 ADD PUSH0 PUSH2 0x100 EXP DUP2 SLOAD DUP2 PUSH20 0xFFFFFFFFFFFFFFFFFFFFFFFFFFFFFFFFFFFFFFFF MUL NOT AND SWAP1 DUP4 PUSH20 0xFFFFFFFFFFFFFFFFFFFFFFFFFFFFFFFFFFFFFFFF AND MUL OR SWAP1 SSTORE POP PUSH1 0x40 DUP3 ADD MLOAD DUP2 PUSH1 0x1 ADD PUSH1 0x14 PUSH2 0x100 EXP DUP2 SLOAD DUP2 PUSH1 0xFF MUL NOT AND SWAP1 DUP4 ISZERO ISZERO MUL OR SWAP1 SSTORE POP SWAP1 POP POP CALLER PUSH20 0xFFFFFFFFFFFFFFFFFFFFFFFFFFFFFFFFFFFFFFFF AND DUP2 PUSH32 0xF038F8A96DC41C1C59D86D2E81663FF567601C4A9A921A3E581EDE01A19EF3EF PUSH1 0x40 MLOAD PUSH1 0x40 MLOAD DUP1 SWAP2 SUB SWAP1 LOG3 POP JUMP JUMPDEST PUSH1 0x1 PUSH1 0x20 MSTORE DUP1 PUSH0 MSTORE PUSH1 0x40 PUSH0 KECCAK256 PUSH0 SWAP2 POP SLOAD SWAP1 PUSH2 0x100 EXP SWAP1 DIV PUSH1 0xFF AND DUP2 JUMP JUMPDEST PUSH1 0x1 PUSH0 CALLER PUSH20 0xFFFFFFFFFFFFFFFFFFFFFFFFFFFFFFFFFFFFFFFF AND PUSH20 0xFFFFFFFFFFFFFFFFFFFFFFFFFFFFFFFFFFFFFFFF AND DUP2 MSTORE PUSH1 0x20 ADD SWAP1 DUP2 MSTORE PUSH1 0x20 ADD PUSH0 KECCAK256 PUSH0 SWAP1 SLOAD SWAP1 PUSH2 0x100 EXP SWAP1 DIV PUSH1 0xFF AND ISZERO PUSH2 0x43A JUMPI PUSH1 0x40 MLOAD PUSH32 0x8C379A000000000000000000000000000000000000000000000000000000000 DUP2 MSTORE PUSH1 0x4 ADD PUSH2 0x431 SWAP1 PUSH2 0xD1B JUMP JUMPDEST PUSH1 0x40 MLOAD DUP1 SWAP2 SUB SWAP1 REVERT JUMPDEST PUSH1 0x1 DUP1 PUSH0 CALLER PUSH20 0xFFFFFFFFFFFFFFFFFFFFFFFFFFFFFFFFFFFFFFFF AND PUSH20 0xFFFFFFFFFFFFFFFFFFFFFFFFFFFFFFFFFFFFFFFF AND DUP2 MSTORE PUSH1 0x20 ADD SWAP1 DUP2 MSTORE PUSH1 0x20 ADD PUSH0 KECCAK256 PUSH0 PUSH2 0x100 EXP DUP2 SLOAD DUP2 PUSH1 0xFF MUL NOT AND SWAP1 DUP4 ISZERO ISZERO MUL OR SWAP1 SSTORE POP CALLER PUSH20 0xFFFFFFFFFFFFFFFFFFFFFFFFFFFFFFFFFFFFFFFF AND PUSH32 0xC2D72AC93E7FB29C534663A530CD3DB012D5C336965E423E0ED5EE7A64ED8745 PUSH1 0x40 MLOAD PUSH1 0x40 MLOAD DUP1 SWAP2 SUB SWAP1 LOG2 JUMP JUMPDEST PUSH1 0x2 PUSH0 DUP5 PUSH20 0xFFFFFFFFFFFFFFFFFFFFFFFFFFFFFFFFFFFFFFFF AND PUSH20 0xFFFFFFFFFFFFFFFFFFFFFFFFFFFFFFFFFFFFFFFF AND DUP2 MSTORE PUSH1 0x20 ADD SWAP1 DUP2 MSTORE PUSH1 0x20 ADD PUSH0 KECCAK256 PUSH1 0x1 ADD PUSH0 SWAP1 SLOAD SWAP1 PUSH2 0x100 EXP SWAP1 DIV PUSH1 0xFF AND ISZERO PUSH2 0x560 JUMPI PUSH1 0x40 MLOAD PUSH32 0x8C379A000000000000000000000000000000000000000000000000000000000 DUP2 MSTORE PUSH1 0x4 ADD PUSH2 0x557 SWAP1 PUSH2 0xD83 JUMP JUMPDEST PUSH1 0x40 MLOAD DUP1 SWAP2 SUB SWAP1 REVERT JUMPDEST PUSH1 0x40 MLOAD DUP1 PUSH1 0x40 ADD PUSH1 0x40 MSTORE DUP1 DUP4 DUP4 DUP1 DUP1 PUSH1 0x1F ADD PUSH1 0x20 DUP1 SWAP2 DIV MUL PUSH1 0x20 ADD PUSH1 0x40 MLOAD SWAP1 DUP2 ADD PUSH1 0x40 MSTORE DUP1 SWAP4 SWAP3 SWAP2 SWAP1 DUP2 DUP2 MSTORE PUSH1 0x20 ADD DUP4 DUP4 DUP1 DUP3 DUP5 CALLDATACOPY PUSH0 DUP2 DUP5 ADD MSTORE PUSH1 0x1F NOT PUSH1 0x1F DUP3 ADD AND SWAP1 POP DUP1 DUP4 ADD SWAP3 POP POP POP POP POP POP POP DUP2 MSTORE PUSH1 0x20 ADD PUSH1 0x1 ISZERO ISZERO DUP2 MSTORE POP PUSH1 0x2 PUSH0 DUP6 PUSH20 0xFFFFFFFFFFFFFFFFFFFFFFFFFFFFFFFFFFFFFFFF AND PUSH20 0xFFFFFFFFFFFFFFFFFFFFFFFFFFFFFFFFFFFFFFFF AND DUP2 MSTORE PUSH1 0x20 ADD SWAP1 DUP2 MSTORE PUSH1 0x20 ADD PUSH0 KECCAK256 PUSH0 DUP3 ADD MLOAD DUP2 PUSH0 ADD SWAP1 DUP2 PUSH2 0x60B SWAP2 SWAP1 PUSH2 0xFD1 JUMP JUMPDEST POP PUSH1 0x20 DUP3 ADD MLOAD DUP2 PUSH1 0x1 ADD PUSH0 PUSH2 0x100 EXP DUP2 SLOAD DUP2 PUSH1 0xFF MUL NOT AND SWAP1 DUP4 ISZERO ISZERO MUL OR SWAP1 SSTORE POP SWAP1 POP POP DUP3 PUSH20 0xFFFFFFFFFFFFFFFFFFFFFFFFFFFFFFFFFFFFFFFF AND PUSH32 0x95889E852BD8C32E4BD5A807723A13C8DBF0598B5E1DCDD1F609C0E79D169DFE DUP4 DUP4 PUSH1 0x40 MLOAD PUSH2 0x676 SWAP3 SWAP2 SWAP1 PUSH2 0x10DA JUMP JUMPDEST PUSH1 0x40 MLOAD DUP1 SWAP2 SUB SWAP1 LOG2 POP POP POP JUMP JUMPDEST PUSH0 PUSH1 0x2 PUSH0 CALLER PUSH20 0xFFFFFFFFFFFFFFFFFFFFFFFFFFFFFFFFFFFFFFFF AND PUSH20 0xFFFFFFFFFFFFFFFFFFFFFFFFFFFFFFFFFFFFFFFF AND DUP2 MSTORE PUSH1 0x20 ADD SWAP1 DUP2 MSTORE PUSH1 0x20 ADD PUSH0 KECCAK256 PUSH1 0x1 ADD PUSH0 SWAP1 SLOAD SWAP1 PUSH2 0x100 EXP SWAP1 DIV PUSH1 0xFF AND PUSH2 0x710 JUMPI PUSH1 0x40 MLOAD PUSH32 0x8C379A000000000000000000000000000000000000000000000000000000000 DUP2 MSTORE PUSH1 0x4 ADD PUSH2 0x707 SWAP1 PUSH2 0x116C JUMP JUMPDEST PUSH1 0x40 MLOAD DUP1 SWAP2 SUB SWAP1 REVERT JUMPDEST PUSH0 DUP1 PUSH0 DUP5 DUP2 MSTORE PUSH1 0x20 ADD SWAP1 DUP2 MSTORE PUSH1 0x20 ADD PUSH0 KECCAK256 PUSH1 0x40 MLOAD DUP1 PUSH1 0x60 ADD PUSH1 0x40 MSTORE SWAP1 DUP2 PUSH0 DUP3 ADD SLOAD DUP2 MSTORE PUSH1 0x20 ADD PUSH1 0x1 DUP3 ADD PUSH0 SWAP1 SLOAD SWAP1 PUSH2 0x100 EXP SWAP1 DIV PUSH20 0xFFFFFFFFFFFFFFFFFFFFFFFFFFFFFFFFFFFFFFFF AND PUSH20 0xFFFFFFFFFFFFFFFFFFFFFFFFFFFFFFFFFFFFFFFF AND PUSH20 0xFFFFFFFFFFFFFFFFFFFFFFFFFFFFFFFFFFFFFFFF AND DUP2 MSTORE PUSH1 0x20 ADD PUSH1 0x1 DUP3 ADD PUSH1 0x14 SWAP1 SLOAD SWAP1 PUSH2 0x100 EXP SWAP1 DIV PUSH1 0xFF AND ISZERO ISZERO ISZERO ISZERO DUP2 MSTORE POP POP SWAP1 POP DUP1 PUSH1 0x40 ADD MLOAD SWAP2 POP POP SWAP2 SWAP1 POP JUMP JUMPDEST PUSH1 0x2 PUSH1 0x20 MSTORE DUP1 PUSH0 MSTORE PUSH1 0x40 PUSH0 KECCAK256 PUSH0 SWAP2 POP SWAP1 POP DUP1 PUSH0 ADD DUP1 SLOAD PUSH2 0x7D3 SWAP1 PUSH2 0xDFB JUMP JUMPDEST DUP1 PUSH1 0x1F ADD PUSH1 0x20 DUP1 SWAP2 DIV MUL PUSH1 0x20 ADD PUSH1 0x40 MLOAD SWAP1 DUP2 ADD PUSH1 0x40 MSTORE DUP1 SWAP3 SWAP2 SWAP1 DUP2 DUP2 MSTORE PUSH1 0x20 ADD DUP3 DUP1 SLOAD PUSH2 0x7FF SWAP1 PUSH2 0xDFB JUMP JUMPDEST DUP1 ISZERO PUSH2 0x84A JUMPI DUP1 PUSH1 0x1F LT PUSH2 0x821 JUMPI PUSH2 0x100 DUP1 DUP4 SLOAD DIV MUL DUP4 MSTORE SWAP2 PUSH1 0x20 ADD SWAP2 PUSH2 0x84A JUMP JUMPDEST DUP3 ADD SWAP2 SWAP1 PUSH0 MSTORE PUSH1 0x20 PUSH0 KECCAK256 SWAP1 JUMPDEST DUP2 SLOAD DUP2 MSTORE SWAP1 PUSH1 0x1 ADD SWAP1 PUSH1 0x20 ADD DUP1 DUP4 GT PUSH2 0x82D JUMPI DUP3 SWAP1 SUB PUSH1 0x1F AND DUP3 ADD SWAP2 JUMPDEST POP POP POP POP POP SWAP1 DUP1 PUSH1 0x1 ADD PUSH0 SWAP1 SLOAD SWAP1 PUSH2 0x100 EXP SWAP1 DIV PUSH1 0xFF AND SWAP1 POP DUP3 JUMP JUMPDEST CALLER PUSH20 0xFFFFFFFFFFFFFFFFFFFFFFFFFFFFFFFFFFFFFFFF AND PUSH0 DUP1 DUP4 DUP2 MSTORE PUSH1 0x20 ADD SWAP1 DUP2 MSTORE PUSH1 0x20 ADD PUSH0 KECCAK256 PUSH1 0x1 ADD PUSH0 SWAP1 SLOAD SWAP1 PUSH2 0x100 EXP SWAP1 DIV PUSH20 0xFFFFFFFFFFFFFFFFFFFFFFFFFFFFFFFFFFFFFFFF AND PUSH20 0xFFFFFFFFFFFFFFFFFFFFFFFFFFFFFFFFFFFFFFFF AND EQ PUSH2 0x906 JUMPI PUSH1 0x40 MLOAD PUSH32 0x8C379A000000000000000000000000000000000000000000000000000000000 DUP2 MSTORE PUSH1 0x4 ADD PUSH2 0x8FD SWAP1 PUSH2 0x11FA JUMP JUMPDEST PUSH1 0x40 MLOAD DUP1 SWAP2 SUB SWAP1 REVERT JUMPDEST PUSH0 DUP1 PUSH0 DUP4 DUP2 MSTORE PUSH1 0x20 ADD SWAP1 DUP2 MSTORE PUSH1 0x20 ADD PUSH0 KECCAK256 PUSH1 0x1 ADD PUSH1 0x14 PUSH2 0x100 EXP DUP2 SLOAD DUP2 PUSH1 0xFF MUL NOT AND SWAP1 DUP4 ISZERO ISZERO MUL OR SWAP1 SSTORE POP DUP1 PUSH32 0x135DA073807BB75B5AC08972E9DD63B72D73A01C65A5ED22FC25A53ED750D2C PUSH1 0x40 MLOAD PUSH1 0x40 MLOAD DUP1 SWAP2 SUB SWAP1 LOG2 POP JUMP JUMPDEST PUSH0 DUP1 REVERT JUMPDEST PUSH0 DUP1 REVERT JUMPDEST PUSH0 DUP2 SWAP1 POP SWAP2 SWAP1 POP JUMP JUMPDEST PUSH2 0x97B DUP2 PUSH2 0x969 JUMP JUMPDEST DUP2 EQ PUSH2 0x985 JUMPI PUSH0 DUP1 REVERT JUMPDEST POP JUMP JUMPDEST PUSH0 DUP2 CALLDATALOAD SWAP1 POP PUSH2 0x996 DUP2 PUSH2 0x972 JUMP JUMPDEST SWAP3 SWAP2 POP POP JUMP JUMPDEST PUSH0 PUSH1 0x20 DUP3 DUP5 SUB SLT ISZERO PUSH2 0x9B1 JUMPI PUSH2 0x9B0 PUSH2 0x961 JUMP JUMPDEST JUMPDEST PUSH0 PUSH2 0x9BE DUP5 DUP3 DUP6 ADD PUSH2 0x988 JUMP JUMPDEST SWAP2 POP POP SWAP3 SWAP2 POP POP JUMP JUMPDEST PUSH0 PUSH20 0xFFFFFFFFFFFFFFFFFFFFFFFFFFFFFFFFFFFFFFFF DUP3 AND SWAP1 POP SWAP2 SWAP1 POP JUMP JUMPDEST PUSH0 PUSH2 0x9F0 DUP3 PUSH2 0x9C7 JUMP JUMPDEST SWAP1 POP SWAP2 SWAP1 POP JUMP JUMPDEST PUSH2 0xA00 DUP2 PUSH2 0x9E6 JUMP JUMPDEST DUP2 EQ PUSH2 0xA0A JUMPI PUSH0 DUP1 REVERT JUMPDEST POP JUMP JUMPDEST PUSH0 DUP2 CALLDATALOAD SWAP1 POP PUSH2 0xA1B DUP2 PUSH2 0x9F7 JUMP JUMPDEST SWAP3 SWAP2 POP POP JUMP JUMPDEST PUSH0 PUSH1 0x20 DUP3 DUP5 SUB SLT ISZERO PUSH2 0xA36 JUMPI PUSH2 0xA35 PUSH2 0x961 JUMP JUMPDEST JUMPDEST PUSH0 PUSH2 0xA43 DUP5 DUP3 DUP6 ADD PUSH2 0xA0D JUMP JUMPDEST SWAP2 POP POP SWAP3 SWAP2 POP POP JUMP JUMPDEST PUSH0 DUP2 ISZERO ISZERO SWAP1 POP SWAP2 SWAP1 POP JUMP JUMPDEST PUSH2 0xA60 DUP2 PUSH2 0xA4C JUMP JUMPDEST DUP3 MSTORE POP POP JUMP JUMPDEST PUSH0 PUSH1 0x20 DUP3 ADD SWAP1 POP PUSH2 0xA79 PUSH0 DUP4 ADD DUP5 PUSH2 0xA57 JUMP JUMPDEST SWAP3 SWAP2 POP POP JUMP JUMPDEST PUSH0 DUP1 REVERT JUMPDEST PUSH0 DUP1 REVERT JUMPDEST PUSH0 DUP1 REVERT JUMPDEST PUSH0 DUP1 DUP4 PUSH1 0x1F DUP5 ADD SLT PUSH2 0xAA0 JUMPI PUSH2 0xA9F PUSH2 0xA7F JUMP JUMPDEST JUMPDEST DUP3 CALLDATALOAD SWAP1 POP PUSH8 0xFFFFFFFFFFFFFFFF DUP2 GT ISZERO PUSH2 0xABD JUMPI PUSH2 0xABC PUSH2 0xA83 JUMP JUMPDEST JUMPDEST PUSH1 0x20 DUP4 ADD SWAP2 POP DUP4 PUSH1 0x1 DUP3 MUL DUP4 ADD GT ISZERO PUSH2 0xAD9 JUMPI PUSH2 0xAD8 PUSH2 0xA87 JUMP JUMPDEST JUMPDEST SWAP3 POP SWAP3 SWAP1 POP JUMP JUMPDEST PUSH0 DUP1 PUSH0 PUSH1 0x40 DUP5 DUP7 SUB SLT ISZERO PUSH2 0xAF7 JUMPI PUSH2 0xAF6 PUSH2 0x961 JUMP JUMPDEST JUMPDEST PUSH0 PUSH2 0xB04 DUP7 DUP3 DUP8 ADD PUSH2 0xA0D JUMP JUMPDEST SWAP4 POP POP PUSH1 0x20 DUP5 ADD CALLDATALOAD PUSH8 0xFFFFFFFFFFFFFFFF DUP2 GT ISZERO PUSH2 0xB25 JUMPI PUSH2 0xB24 PUSH2 0x965 JUMP JUMPDEST JUMPDEST PUSH2 0xB31 DUP7 DUP3 DUP8 ADD PUSH2 0xA8B JUMP JUMPDEST SWAP3 POP SWAP3 POP POP SWAP3 POP SWAP3 POP SWAP3 JUMP JUMPDEST PUSH0 DUP2 MLOAD SWAP1 POP SWAP2 SWAP1 POP JUMP JUMPDEST PUSH0 DUP3 DUP3 MSTORE PUSH1 0x20 DUP3 ADD SWAP1 POP SWAP3 SWAP2 POP POP JUMP JUMPDEST DUP3 DUP2 DUP4 MCOPY PUSH0 DUP4 DUP4 ADD MSTORE POP POP POP JUMP JUMPDEST PUSH0 PUSH1 0x1F NOT PUSH1 0x1F DUP4 ADD AND SWAP1 POP SWAP2 SWAP1 POP JUMP JUMPDEST PUSH0 PUSH2 0xB7F DUP3 PUSH2 0xB3D JUMP JUMPDEST PUSH2 0xB89 DUP2 DUP6 PUSH2 0xB47 JUMP JUMPDEST SWAP4 POP PUSH2 0xB99 DUP2 DUP6 PUSH1 0x20 DUP7 ADD PUSH2 0xB57 JUMP JUMPDEST PUSH2 0xBA2 DUP2 PUSH2 0xB65 JUMP JUMPDEST DUP5 ADD SWAP2 POP POP SWAP3 SWAP2 POP POP JUMP JUMPDEST PUSH0 PUSH1 0x40 DUP3 ADD SWAP1 POP DUP2 DUP2 SUB PUSH0 DUP4 ADD MSTORE PUSH2 0xBC5 DUP2 DUP6 PUSH2 0xB75 JUMP JUMPDEST SWAP1 POP PUSH2 0xBD4 PUSH1 0x20 DUP4 ADD DUP5 PUSH2 0xA57 JUMP JUMPDEST SWAP4 SWAP3 POP POP POP JUMP JUMPDEST PUSH32 0x4F6E6C792061207265676973746572656420677561726469616E2063616E2070 PUSH0 DUP3 ADD MSTORE PUSH32 0x6572666F726D207468697320616374696F6E0000000000000000000000000000 PUSH1 0x20 DUP3 ADD MSTORE POP JUMP JUMPDEST PUSH0 PUSH2 0xC35 PUSH1 0x32 DUP4 PUSH2 0xB47 JUMP JUMPDEST SWAP2 POP PUSH2 0xC40 DUP3 PUSH2 0xBDB JUMP JUMPDEST PUSH1 0x40 DUP3 ADD SWAP1 POP SWAP2 SWAP1 POP JUMP JUMPDEST PUSH0 PUSH1 0x20 DUP3 ADD SWAP1 POP DUP2 DUP2 SUB PUSH0 DUP4 ADD MSTORE PUSH2 0xC62 DUP2 PUSH2 0xC29 JUMP JUMPDEST SWAP1 POP SWAP2 SWAP1 POP JUMP JUMPDEST PUSH32 0x4368696C6420494420616C726561647920726567697374657265640000000000 PUSH0 DUP3 ADD MSTORE POP JUMP JUMPDEST PUSH0 PUSH2 0xC9D PUSH1 0x1B DUP4 PUSH2 0xB47 JUMP JUMPDEST SWAP2 POP PUSH2 0xCA8 DUP3 PUSH2 0xC69 JUMP JUMPDEST PUSH1 0x20 DUP3 ADD SWAP1 POP SWAP2 SWAP1 POP JUMP JUMPDEST PUSH0 PUSH1 0x20 DUP3 ADD SWAP1 POP DUP2 DUP2 SUB PUSH0 DUP4 ADD MSTORE PUSH2 0xCCA DUP2 PUSH2 0xC91 JUMP JUMPDEST SWAP1 POP SWAP2 SWAP1 POP JUMP JUMPDEST PUSH32 0x477561726469616E20616C726561647920726567697374657265640000000000 PUSH0 DUP3 ADD MSTORE POP JUMP JUMPDEST PUSH0 PUSH2 0xD05 PUSH1 0x1B DUP4 PUSH2 0xB47 JUMP JUMPDEST SWAP2 POP PUSH2 0xD10 DUP3 PUSH2 0xCD1 JUMP JUMPDEST PUSH1 0x20 DUP3 ADD SWAP1 POP SWAP2 SWAP1 POP JUMP JUMPDEST PUSH0 PUSH1 0x20 DUP3 ADD SWAP1 POP DUP2 DUP2 SUB PUSH0 DUP4 ADD MSTORE PUSH2 0xD32 DUP2 PUSH2 0xCF9 JUMP JUMPDEST SWAP1 POP SWAP2 SWAP1 POP JUMP JUMPDEST PUSH32 0x506C6174666F726D20616C726561647920726567697374657265640000000000 PUSH0 DUP3 ADD MSTORE POP JUMP JUMPDEST PUSH0 PUSH2 0xD6D PUSH1 0x1B DUP4 PUSH2 0xB47 JUMP JUMPDEST SWAP2 POP PUSH2 0xD78 DUP3 PUSH2 0xD39 JUMP JUMPDEST PUSH1 0x20 DUP3 ADD SWAP1 POP SWAP2 SWAP1 POP JUMP JUMPDEST PUSH0 PUSH1 0x20 DUP3 ADD SWAP1 POP DUP2 DUP2 SUB PUSH0 DUP4 ADD MSTORE PUSH2 0xD9A DUP2 PUSH2 0xD61 JUMP JUMPDEST SWAP1 POP SWAP2 SWAP1 POP JUMP JUMPDEST PUSH32 0x4E487B7100000000000000000000000000000000000000000000000000000000 PUSH0 MSTORE PUSH1 0x41 PUSH1 0x4 MSTORE PUSH1 0x24 PUSH0 REVERT JUMPDEST PUSH32 0x4E487B7100000000000000000000000000000000000000000000000000000000 PUSH0 MSTORE PUSH1 0x22 PUSH1 0x4 MSTORE PUSH1 0x24 PUSH0 REVERT JUMPDEST PUSH0 PUSH1 0x2 DUP3 DIV SWAP1 POP PUSH1 0x1 DUP3 AND DUP1 PUSH2 0xE12 JUMPI PUSH1 0x7F DUP3 AND SWAP2 POP JUMPDEST PUSH1 0x20 DUP3 LT DUP2 SUB PUSH2 0xE25 JUMPI PUSH2 0xE24 PUSH2 0xDCE JUMP JUMPDEST JUMPDEST POP SWAP2 SWAP1 POP JUMP JUMPDEST PUSH0 DUP2 SWAP1 POP DUP2 PUSH0 MSTORE PUSH1 0x20 PUSH0 KECCAK256 SWAP1 POP SWAP2 SWAP1 POP JUMP JUMPDEST PUSH0 PUSH1 0x20 PUSH1 0x1F DUP4 ADD DIV SWAP1 POP SWAP2 SWAP1 POP JUMP JUMPDEST PUSH0 DUP3 DUP3 SHL SWAP1 POP SWAP3 SWAP2 POP POP JUMP JUMPDEST PUSH0 PUSH1 0x8 DUP4 MUL PUSH2 0xE87 PUSH32 0xFFFFFFFFFFFFFFFFFFFFFFFFFFFFFFFFFFFFFFFFFFFFFFFFFFFFFFFFFFFFFFFF DUP3 PUSH2 0xE4C JUMP JUMPDEST PUSH2 0xE91 DUP7 DUP4 PUSH2 0xE4C JUMP JUMPDEST SWAP6 POP DUP1 NOT DUP5 AND SWAP4 POP DUP1 DUP7 AND DUP5 OR SWAP3 POP POP POP SWAP4 SWAP3 POP POP POP JUMP JUMPDEST PUSH0 DUP2 SWAP1 POP SWAP2 SWAP1 POP JUMP JUMPDEST PUSH0 DUP2 SWAP1 POP SWAP2 SWAP1 POP JUMP JUMPDEST PUSH0 PUSH2 0xED5 PUSH2 0xED0 PUSH2 0xECB DUP5 PUSH2 0xEA9 JUMP JUMPDEST PUSH2 0xEB2 JUMP JUMPDEST PUSH2 0xEA9 JUMP JUMPDEST SWAP1 POP SWAP2 SWAP1 POP JUMP JUMPDEST PUSH0 DUP2 SWAP1 POP SWAP2 SWAP1 POP JUMP JUMPDEST PUSH2 0xEEE DUP4 PUSH2 0xEBB JUMP JUMPDEST PUSH2 0xF02 PUSH2 0xEFA DUP3 PUSH2 0xEDC JUMP JUMPDEST DUP5 DUP5 SLOAD PUSH2 0xE58 JUMP JUMPDEST DUP3 SSTORE POP POP POP POP JUMP JUMPDEST PUSH0 SWAP1 JUMP JUMPDEST PUSH2 0xF16 PUSH2 0xF0A JUMP JUMPDEST PUSH2 0xF21 DUP2 DUP5 DUP5 PUSH2 0xEE5 JUMP JUMPDEST POP POP POP JUMP JUMPDEST JUMPDEST DUP2 DUP2 LT ISZERO PUSH2 0xF44 JUMPI PUSH2 0xF39 PUSH0 DUP3 PUSH2 0xF0E JUMP JUMPDEST PUSH1 0x1 DUP2 ADD SWAP1 POP PUSH2 0xF27 JUMP JUMPDEST POP POP JUMP JUMPDEST PUSH1 0x1F DUP3 GT ISZERO PUSH2 0xF89 JUMPI PUSH2 0xF5A DUP2 PUSH2 0xE2B JUMP JUMPDEST PUSH2 0xF63 DUP5 PUSH2 0xE3D JUMP JUMPDEST DUP2 ADD PUSH1 0x20 DUP6 LT ISZERO PUSH2 0xF72 JUMPI DUP2 SWAP1 POP JUMPDEST PUSH2 0xF86 PUSH2 0xF7E DUP6 PUSH2 0xE3D JUMP JUMPDEST DUP4 ADD DUP3 PUSH2 0xF26 JUMP JUMPDEST POP POP JUMPDEST POP POP POP JUMP JUMPDEST PUSH0 DUP3 DUP3 SHR SWAP1 POP SWAP3 SWAP2 POP POP JUMP JUMPDEST PUSH0 PUSH2 0xFA9 PUSH0 NOT DUP5 PUSH1 0x8 MUL PUSH2 0xF8E JUMP JUMPDEST NOT DUP1 DUP4 AND SWAP2 POP POP SWAP3 SWAP2 POP POP JUMP JUMPDEST PUSH0 PUSH2 0xFC1 DUP4 DUP4 PUSH2 0xF9A JUMP JUMPDEST SWAP2 POP DUP3 PUSH1 0x2 MUL DUP3 OR SWAP1 POP SWAP3 SWAP2 POP POP JUMP JUMPDEST PUSH2 0xFDA DUP3 PUSH2 0xB3D JUMP JUMPDEST PUSH8 0xFFFFFFFFFFFFFFFF DUP2 GT ISZERO PUSH2 0xFF3 JUMPI PUSH2 0xFF2 PUSH2 0xDA1 JUMP JUMPDEST JUMPDEST PUSH2 0xFFD DUP3 SLOAD PUSH2 0xDFB JUMP JUMPDEST PUSH2 0x1008 DUP3 DUP3 DUP6 PUSH2 0xF48 JUMP JUMPDEST PUSH0 PUSH1 0x20 SWAP1 POP PUSH1 0x1F DUP4 GT PUSH1 0x1 DUP2 EQ PUSH2 0x1039 JUMPI PUSH0 DUP5 ISZERO PUSH2 0x1027 JUMPI DUP3 DUP8 ADD MLOAD SWAP1 POP JUMPDEST PUSH2 0x1031 DUP6 DUP3 PUSH2 0xFB6 JUMP JUMPDEST DUP7 SSTORE POP PUSH2 0x1098 JUMP JUMPDEST PUSH1 0x1F NOT DUP5 AND PUSH2 0x1047 DUP7 PUSH2 0xE2B JUMP JUMPDEST PUSH0 JUMPDEST DUP3 DUP2 LT ISZERO PUSH2 0x106E JUMPI DUP5 DUP10 ADD MLOAD DUP3 SSTORE PUSH1 0x1 DUP3 ADD SWAP2 POP PUSH1 0x20 DUP6 ADD SWAP5 POP PUSH1 0x20 DUP2 ADD SWAP1 POP PUSH2 0x1049 JUMP JUMPDEST DUP7 DUP4 LT ISZERO PUSH2 0x108B JUMPI DUP5 DUP10 ADD MLOAD PUSH2 0x1087 PUSH1 0x1F DUP10 AND DUP3 PUSH2 0xF9A JUMP JUMPDEST DUP4 SSTORE POP JUMPDEST PUSH1 0x1 PUSH1 0x2 DUP9 MUL ADD DUP9 SSTORE POP POP POP JUMPDEST POP POP POP POP POP POP JUMP JUMPDEST DUP3 DUP2 DUP4 CALLDATACOPY PUSH0 DUP4 DUP4 ADD MSTORE POP POP POP JUMP JUMPDEST PUSH0 PUSH2 0x10B9 DUP4 DUP6 PUSH2 0xB47 JUMP JUMPDEST SWAP4 POP PUSH2 0x10C6 DUP4 DUP6 DUP5 PUSH2 0x10A0 JUMP JUMPDEST PUSH2 0x10CF DUP4 PUSH2 0xB65 JUMP JUMPDEST DUP5 ADD SWAP1 POP SWAP4 SWAP3 POP POP POP JUMP JUMPDEST PUSH0 PUSH1 0x20 DUP3 ADD SWAP1 POP DUP2 DUP2 SUB PUSH0 DUP4 ADD MSTORE PUSH2 0x10F3 DUP2 DUP5 DUP7 PUSH2 0x10AE JUMP JUMPDEST SWAP1 POP SWAP4 SWAP3 POP POP POP JUMP JUMPDEST PUSH32 0x4F6E6C79206120766572696669656420706C6174666F726D2063616E20706572 PUSH0 DUP3 ADD MSTORE PUSH32 0x666F726D207468697320616374696F6E00000000000000000000000000000000 PUSH1 0x20 DUP3 ADD MSTORE POP JUMP JUMPDEST PUSH0 PUSH2 0x1156 PUSH1 0x30 DUP4 PUSH2 0xB47 JUMP JUMPDEST SWAP2 POP PUSH2 0x1161 DUP3 PUSH2 0x10FC JUMP JUMPDEST PUSH1 0x40 DUP3 ADD SWAP1 POP SWAP2 SWAP1 POP JUMP JUMPDEST PUSH0 PUSH1 0x20 DUP3 ADD SWAP1 POP DUP2 DUP2 SUB PUSH0 DUP4 ADD MSTORE PUSH2 0x1183 DUP2 PUSH2 0x114A JUMP JUMPDEST SWAP1 POP SWAP2 SWAP1 POP JUMP JUMPDEST PUSH32 0x4F6E6C792074686520677561726469616E2063616E207265766F6B6520616363 PUSH0 DUP3 ADD MSTORE PUSH32 0x6573730000000000000000000000000000000000000000000000000000000000 PUSH1 0x20 DUP3 ADD MSTORE POP JUMP JUMPDEST PUSH0 PUSH2 0x11E4 PUSH1 0x23 DUP4 PUSH2 0xB47 JUMP JUMPDEST SWAP2 POP PUSH2 0x11EF DUP3 PUSH2 0x118A JUMP JUMPDEST PUSH1 0x40 DUP3 ADD SWAP1 POP SWAP2 SWAP1 POP JUMP JUMPDEST PUSH0 PUSH1 0x20 DUP3 ADD SWAP1 POP DUP2 DUP2 SUB PUSH0 DUP4 ADD MSTORE PUSH2 0x1211 DUP2 PUSH2 0x11D8 JUMP JUMPDEST SWAP1 POP SWAP2 SWAP1 POP JUMP INVALID LOG2 PUSH5 0x6970667358 0x22 SLT KECCAK256 DIV SUB LOG3 0x4F 0xC2 0xB2 PUSH5 0xE3A42C9380 0xB7 0xAE 0x29 0xAF RETURNDATASIZE 0xCE PUSH3 0x4AFD29 SMOD PUSH20 0xE0C5C8166986490664736F6C634300081A003300 "
				},
				"gasEstimates": {
					"creation": {
						"codeDepositCost": "937200",
						"executionCost": "973",
						"totalCost": "938173"
					},
					"external": {
						"guardians(address)": "2856",
						"platforms(address)": "infinite",
						"registerChild(bytes32)": "77336",
						"registerGuardian()": "27943",
						"registerPlatform(address,string)": "infinite",
						"revokeChildAccess(bytes32)": "28271",
						"verifyChildAccess(bytes32)": "9504"
					}
				},
				"methodIdentifiers": {
					"guardians(address)": "0633b14a",
					"platforms(address)": "d1313384",
					"registerChild(bytes32)": "045d636d",
					"registerGuardian()": "4dbe8fdc",
					"registerPlatform(address,string)": "8577ee23",
					"revokeChildAccess(bytes32)": "fe77205f",
					"verifyChildAccess(bytes32)": "a47c7816"
				}
			},
			"storageLayout": {
				"storage": [
					{
						"astId": 18,
						"contract": "contracts/ProofOfHumanity.sol:ProofOfHumanity",
						"label": "children",
						"offset": 0,
						"slot": "0",
						"type": "t_mapping(t_bytes32,t_struct(Child)8_storage)"
					},
					{
						"astId": 22,
						"contract": "contracts/ProofOfHumanity.sol:ProofOfHumanity",
						"label": "guardians",
						"offset": 0,
						"slot": "1",
						"type": "t_mapping(t_address,t_bool)"
					},
					{
						"astId": 27,
						"contract": "contracts/ProofOfHumanity.sol:ProofOfHumanity",
						"label": "platforms",
						"offset": 0,
						"slot": "2",
						"type": "t_mapping(t_address,t_struct(Platform)13_storage)"
					}
				],
				"types": {
					"t_address": {
						"encoding": "inplace",
						"label": "address",
						"numberOfBytes": "20"
					},
					"t_bool": {
						"encoding": "inplace",
						"label": "bool",
						"numberOfBytes": "1"
					},
					"t_bytes32": {
						"encoding": "inplace",
						"label": "bytes32",
						"numberOfBytes": "32"
					},
					"t_mapping(t_address,t_bool)": {
						"encoding": "mapping",
						"key": "t_address",
						"label": "mapping(address => bool)",
						"numberOfBytes": "32",
						"value": "t_bool"
					},
					"t_mapping(t_address,t_struct(Platform)13_storage)": {
						"encoding": "mapping",
						"key": "t_address",
						"label": "mapping(address => struct ProofOfHumanity.Platform)",
						"numberOfBytes": "32",
						"value": "t_struct(Platform)13_storage"
					},
					"t_mapping(t_bytes32,t_struct(Child)8_storage)": {
						"encoding": "mapping",
						"key": "t_bytes32",
						"label": "mapping(bytes32 => struct ProofOfHumanity.Child)",
						"numberOfBytes": "32",
						"value": "t_struct(Child)8_storage"
					},
					"t_string_storage": {
						"encoding": "bytes",
						"label": "string",
						"numberOfBytes": "32"
					},
					"t_struct(Child)8_storage": {
						"encoding": "inplace",
						"label": "struct ProofOfHumanity.Child",
						"members": [
							{
								"astId": 3,
								"contract": "contracts/ProofOfHumanity.sol:ProofOfHumanity",
								"label": "idHash",
								"offset": 0,
								"slot": "0",
								"type": "t_bytes32"
							},
							{
								"astId": 5,
								"contract": "contracts/ProofOfHumanity.sol:ProofOfHumanity",
								"label": "guardian",
								"offset": 0,
								"slot": "1",
								"type": "t_address"
							},
							{
								"astId": 7,
								"contract": "contracts/ProofOfHumanity.sol:ProofOfHumanity",
								"label": "active",
								"offset": 20,
								"slot": "1",
								"type": "t_bool"
							}
						],
						"numberOfBytes": "64"
					},
					"t_struct(Platform)13_storage": {
						"encoding": "inplace",
						"label": "struct ProofOfHumanity.Platform",
						"members": [
							{
								"astId": 10,
								"contract": "contracts/ProofOfHumanity.sol:ProofOfHumanity",
								"label": "name",
								"offset": 0,
								"slot": "0",
								"type": "t_string_storage"
							},
							{
								"astId": 12,
								"contract": "contracts/ProofOfHumanity.sol:ProofOfHumanity",
								"label": "verified",
								"offset": 0,
								"slot": "1",
								"type": "t_bool"
							}
						],
						"numberOfBytes": "64"
					}
				}
			},
			"userdoc": {
				"kind": "user",
				"methods": {
					"registerChild(bytes32)": {
						"notice": "Register a child under a guardian"
					},
					"registerGuardian()": {
						"notice": "Register a guardian"
					},
					"registerPlatform(address,string)": {
						"notice": "Register a platform"
					},
					"revokeChildAccess(bytes32)": {
						"notice": "Revoke a child's access"
					},
					"verifyChildAccess(bytes32)": {
						"notice": "Verify a child's access for a platform"
					}
				},
				"version": 1
			}
		}
	}
}